:100000000C947A000C9499000C9499000C9499002B
:100010000C9499000C9499000C9499000C949900FC
:100020000C9499000C9499000C9499000C949900EC
:100030000C9499000C9499000C9479030C949900F9
:100040000C9499000C9499000C9499000C949900CC
:100050000C9410030C9499000C9499000C94990042
:100060000C9499000C9499000C9426010C9499001E
:100070000C9499000C9499000C9499000C9499009C
:100080000C9499000C9499000C9499000C944B04D6
:100090000C9499000C9499000C9499000C9499007C
:1000A0000C9499000C9499000C9499000C9499006C
:1000B0000C9499000C9425040C9499000C94AA04B7
:1000C0000C9499000C9499000C9499000C9499004C
:1000D0000C9499000C948E050C9499000C94B50521
:1000E0000C9499000C9499000C9499000C9499002C
:1000F0000C94990011241FBECFEFCDBFDFE7DEBF08
:1001000010E4A0E0B0E4E6E7F6E100E00BBF02C0D7
:1001100007900D92A032B107D9F721E4A0E2B0E434
:1001200001C01D92A132B207E1F70E94BD030C94F9
:10013000390B0C94000081E080930A06089581E059
:100140008093204080913C4090913D40892B49F420
:100150008091100690911106809308409093094079
:10016000089580913C4090913D40019749F48091E1
:1001700010069091110680930640909307400895D1
:1001800080913C4090913D40029749F48091100647
:1001900090911106809304409093054008958091BA
:1001A0003C4090913D40039749F480911006909116
:1001B00011068093024090930340089580913C4043
:1001C00090913D40049741F4809110069091110662
:1001D00080930040909301400895282F30E02093B1
:1001E0003C4030933D40811103C01092080613C07B
:1001F000813019F4809308060EC0823019F4809380
:10020000080609C0833019F48093080604C08430BE
:1002100011F4809308060E949B000895E0EBF0E043
:10022000808183608083E0E0F6E082818460828365
:1002300080818160808380818083848581608487E0
:1002400080E00E94ED000E949B0008951F920F9293
:100250000FB60F9211240BB60F922F933F934F932B
:100260005F936F937F938F939F93AF93BF93EF931E
:10027000FF930E949F00FF91EF91BF91AF919F91DB
:100280008F917F916F915F914F913F912F910F903F
:100290000BBE0F900FBE0F901F90189581E48093B6
:1002A000A006089583E88093B2000E944E0187EC77
:1002B00090E00197F1F700C0000008956CE188E636
:1002C00090E00E94330B0895E0EAF4E08CE1828331
:1002D0008BE0828B838B848BE0E2F4E084E082838A
:1002E00088E0818382898860828B82898160828BA9
:1002F0000895E0E8F4E080818160808381E0858377
:1003000008958091214081110EC0E0E0FAE08181E2
:100310008064818388EC90E00E94A5040E947901AA
:1003200081E080932140089581E0809386040895C0
:1003300080912140813071F4E0E0FAE081818F7B8F
:1003400081830E949401E0E0F4E084E0868381836D
:1003500010922140089580912440813029F4109218
:1003600024400E948101089580912340813029F426
:10037000109223400E94980108958091224081307C
:1003800041F41092224081E991E00E94A50410926C
:10039000214008950E940C079B01AC0160E074E2CB
:1003A00084EF99E40E946B0608950E945E010E940A
:1003B0000E010E94FC040E9464010E94B00383EDC0
:1003C00090E30197F1F700C000000E9452010E94E3
:1003D0008C040E947A040E94670308958F929F9272
:1003E000AF92BF92CF92DF92EF92FF920F931F9343
:1003F000CF93DF93CDB7DEB7FC0140835183628397
:1004000073830483158326833783C08AD18AE28A63
:10041000F38A848A958AA68AB78A8F859889A9895A
:10042000BA89808F918FA28FB38FDF91CF911F9167
:100430000F91FF90EF90DF90CF90BF90AF909F9083
:100440008F9008954F925F926F927F928F929F92BA
:10045000AF92BF92CF92DF92EF92FF92CF93DF9352
:10046000CDB7DEB72A97CDBFDEBF89879A87DC017B
:100470006D917D918D919C91139714962D913D9145
:100480004D915C9117970E94F9056B017C01E985FC
:10049000FA8520893189428953890E94C3076D8377
:1004A0007E838F839887A985BA8518962D913D9173
:1004B0004D915C911B97C701B6010E94FA054B0153
:1004C0005C01E985FA856087718782879387409010
:1004D0000A4050900B4060900C4070900D40A3017A
:1004E00092010E94BE0718164CF4A985BA85189689
:1004F0004D925D926D927C921B9719C0D301C201FF
:10050000B05889839A83AB83BC839C01AD01C5013C
:10051000B4010E946606882354F489819A81AB81D4
:10052000BC81E985FA8580879187A287B387A985F1
:10053000BA8554966D917D918D919C91579718969F
:100540002D913D914D915C911B970E94C30769834A
:100550007A838B839C83E985FA85808C918CA28C2D
:10056000B38C2485358546855785C701B6010E9421
:10057000F9059B01AC01C501B4010E94C3074B0101
:100580005C01A985BA851C96CD92DD92ED92FC9214
:100590001F9729813A814B815C816D817E818F819A
:1005A00098850E94FA059B01AC01C501B4010E9427
:1005B000FA05C62ED72EE82EF92E262F372F482FD4
:1005C000592FC301B2010E9466068823ACF020E0D7
:1005D00030E0A9016C2D7D2D8E2D9F2D0E94660689
:1005E00088233CF08C2D9D2DAE2DBF2D2C013D017F
:1005F00003C0412C512C3201C301B2012A96CDBF58
:10060000DEBFDF91CF91FF90EF90DF90CF90BF9052
:10061000AF909F908F907F906F905F904F900895D4
:100620001F920F920FB60F9211240BB60F922F93B9
:100630003F934F935F936F937F938F939F93AF936A
:10064000BF93EF93FF93E0E4F9E0948180E8838324
:1006500080912940823029F0E0912640F091274096
:100660009083E5E2F0E4A181B2819D012F5F3F4FCD
:1006700021833283813019F011969C9101C090E062
:10068000E5E2F0E4838181508383882319F090931D
:1006900044090AC0E5E2F0E483E080830580F68146
:1006A000E02D309709F00995FF91EF91BF91AF913F
:1006B0009F918F917F916F915F914F913F912F917A
:1006C0000F900BBE0F900FBE0F901F901895E0E09B
:1006D000FBE0128613868FE08083118281E090E038
:1006E000848795878583E0E0F2E09DE4908B87AF77
:1006F00008951F920F920FB60F9211240BB60F920E
:100700002F933F934F935F936F937F938F939F9319
:10071000AF93BF93EF93FF930E94D20460932D4059
:1007200070932E4080932F40909330400E94EF04AE
:1007300081E080932C408093060BFF91EF91BF9155
:10074000AF919F918F917F916F915F914F913F9169
:100750002F910F900BBE0F900FBE0F901F9018950A
:10076000E0E0F9E083E7868382E08093E50581E0BD
:1007700083831782108685830895CF93DF93CDB747
:10078000DEB76C97CDBFDEBF0E94D5014FE060E1C0
:1007900070E480E00E944C058DE38F938CE48F938E
:1007A0008CEC8F938DEC8F930F2EFDEC8F2EFCEC49
:1007B0009F2EA92CFDE3BF2EF02D0F2EFAE9CF2E90
:1007C000F9E9DF2EED2CFFE3FF2EF02D00E010E025
:1007D000980140E050E06AEF74E4CE0101960E9477
:1007E000EE0178940F900F900F900F9081E080931E
:1007F0002C400E94AB0180912C408130D9F4809133
:100800000E408130B9F460E971E080E090E00E9430
:10081000CA016D837E838F839887CE0101960E94E3
:1008200022020E94DD0626E831E0C901861B970BF3
:100830000E94A5040E94D204CB010E946A058AE0AE
:100840000E9418050E94EF04D1CF1F920F920FB69D
:100850000F9211240BB60F928F939F93EF93FF93F8
:1008600080917E4090917F40019680937E4090934E
:100870007F40E0E2F4E088E08783818588608187BB
:10088000FF91EF919F918F910F900BBE0F900FBE34
:100890000F901F9018951F920F920FB60F92112470
:1008A0008F9388E0809327048091A90482FF07C07A
:1008B00081E08093244084E08093A90415C0809156
:1008C000A90483FF07C081E08093234088E08093E0
:1008D000A9040AC08091A90484FF06C081E0809326
:1008E000224080E18093A9048F910F900FBE0F905A
:1008F0001F901895E0E4FAE088E0808311828185FA
:100900008E7F818787EA91E686A397A381E082871D
:100910008081816080830895E0E0F4E081818460DB
:1009200081831092E605E0E0FAE0818183608183B3
:1009300080E991E086A397A388EC90E084A795A72F
:100940001082808181608083089580932C0A909327
:100950002D0A08951F920F920FB60F9211248F93B4
:100960009F93AF93BF938091354090913640A09173
:100970003740B09138400196A11DB11D809335409C
:1009800090933640A0933740B093384081E08093F5
:100990004B0ABF91AF919F918F910F900FBE0F9017
:1009A0001F901895E091600AF091610A20913540FE
:1009B000309136404091374050913840A8EAB1E636
:1009C0000E9430086E0F7F1F811D911D6093314082
:1009D0007093324080933340909334400895109246
:1009E000600A1092610A10923540109236401092BF
:1009F0003740109238400895E0E6F8E086E191E053
:100A0000808791878681826C8683A0E2B4E08C9196
:100A100081608C931D968C911D9782601D968C939E
:100A200085818068858388E0878383E08783089554
:100A3000E0913A40F0E0E557FF4B808380913A40E7
:100A40008F5F80933A4020913A4030E080910F4090
:100A500090E001962817390711F410923A4020913E
:100A6000640825FF15C0E0913940F0E0E557FF4BE1
:100A7000208120936208209139402F5F20933940D4
:100A80002091394030E08217930711F410923940D9
:100A900080E68A95F1F70895FF920F931F93CF9305
:100AA000DF93F82E8B01D42FC0E007C0F801EC0FC4
:100AB000F11D80810E941805CF5FCD17B8F3FF208C
:100AC00019F08AE00E941805DF91CF911F910F91D4
:100AD000FF9008950F931F93CF93DF93CDB7DEB7A9
:100AE0002A97CDBFDEBF4AE08E010F5F1F4FB801CE
:100AF0000E944A08F80101900020E9F73197AF0100
:100B0000401B510BB80180E00E944C052A96CDBFD6
:100B1000DEBFDF91CF911F910F9108951F920F9229
:100B20000FB60F9211240BB60F928F93EF93FF9392
:100B300080916008E0913B40F0E0E354FF4B8083FC
:100B400080913B408F5F80933B4080913B4083335B
:100B500011F410923B40FF91EF918F910F900BBEDB
:100B60000F900FBE0F901F9018951F920F920FB607
:100B70000F9211240BB60F922F933F938F939F9355
:100B8000EF93FF939091394080913A409817F9F094
:100B9000E0913940F0E0E557FF4B80818093620897
:100BA000809139408F5F809339402091394030E007
:100BB00080910F4090E001962817390711F41092A8
:100BC0003940E0E6F8E084818064848305C0E0E693
:100BD000F8E0848180648483FF91EF919F918F91ED
:100BE0003F912F910F900BBE0F900FBE0F901F9053
:100BF00018955058BB27AA270E9411060C94840709
:100C00000E94760738F00E947D0720F039F49F3F5C
:100C100019F426F40C9473070EF4E095E7FB0C949A
:100C20006D07E92F0E94950758F3BA1762077307FB
:100C30008407950720F079F4A6F50C94B7070EF415
:100C4000E0950B2EBA2FA02D0B01B90190010C01DC
:100C5000CA01A0011124FF27591B99F0593F50F4F4
:100C6000503E68F11A16F040A22F232F342F44274C
:100C7000585FF3CF469537952795A795F040539544
:100C8000C9F77EF41F16BA0B620B730B840BBAF014
:100C90009150A1F0FF0FBB1F661F771F881FC2F77F
:100CA0000EC0BA0F621F731F841F48F48795779593
:100CB0006795B795F7959E3F08F0B0CF9395880F4D
:100CC00008F09927EE0F9795879508950E94490798
:100CD00008F481E008950E947F060C9484070E9426
:100CE0007D0758F00E94760740F029F45F3F29F015
:100CF0000C946D0751110C94B8070C9473070E9463
:100D0000950768F39923B1F3552391F3951B550B80
:100D1000BB27AA2762177307840738F09F5F5F4FCE
:100D2000220F331F441FAA1FA9F335D00E2E3AF00D
:100D3000E0E832D091505040E695001CCAF72BD025
:100D4000FE2F29D0660F771F881FBB1F2617370776
:100D50004807AB07B0E809F0BB0B802DBF01FF27A8
:100D600093585F4F3AF09E3F510578F00C946D0711
:100D70000C94B8075F3FE4F3983ED4F386957795DB
:100D80006795B795F7959F5FC9F7880F911D969561
:100D9000879597F90895E1E0660F771F881FBB1FBD
:100DA000621773078407BA0720F0621B730B840B6A
:100DB000BA0BEE1F88F7E09508950E949D0788F012
:100DC0009F5798F0B92F9927B751B0F0E1F0660F0F
:100DD000771F881F991F1AF0BA95C9F714C0B13050
:100DE00091F00E94B707B1E008950C94B707672F00
:100DF000782F8827B85F39F0B93FCCF3869577957F
:100E00006795B395D9F73EF4909580957095619567
:100E10007F4F8F4F9F4F0895E89409C097FB3EF492
:100E200090958095709561957F4F8F4F9F4F992337
:100E3000A9F0F92F96E9BB279395F69587957795B5
:100E40006795B795F111F8CFFAF4BB0F11F460FF75
:100E50001BC06F5F7F4F8F4F9F4F16C0882311F0CD
:100E600096E911C0772321F09EE8872F762F05C0E1
:100E7000662371F096E8862F70E060E02AF09A957C
:100E8000660F771F881FDAF7880F9695879597F971
:100E90000895990F0008550FAA0BE0E8FEEF16160B
:100EA0001706E807F907C0F012161306E407F5075E
:100EB00098F0621B730B840B950B39F40A2661F0D2
:100EC000232B242B252B21F408950A2609F4A14075
:100ED000A6958FEF811D811D089597F99F6780E882
:100EE00070E060E008959FEF80EC089500240A947C
:100EF0001616170618060906089500240A941216F5
:100F00001306140605060895092E0394000C11F427
:100F1000882352F0BB0F40F4BF2B11F460FF04C0D4
:100F20006F5F7F4F8F4F9F4F089557FD9058440F2D
:100F3000551F59F05F3F71F04795880F97FB991F38
:100F400061F09F3F79F087950895121613061406F5
:100F5000551FF2CF4695F1DF08C016161706180682
:100F6000991FF1CF86957105610508940895E8945D
:100F7000BB2766277727CB0197F908950E94490779
:100F800008F48FEF08950E94D6070C9484070E94FE
:100F9000760738F00E947D0720F0952311F00C941D
:100FA0006D070C94730711240C94B8070E949507E1
:100FB00070F3959FC1F3950F50E0551F629FF001AC
:100FC000729FBB27F00DB11D639FAA27F00DB11DC5
:100FD000AA1F649F6627B00DA11D661F829F22274E
:100FE000B00DA11D621F739FB00DA11D621F839FD5
:100FF000A00D611D221F749F3327A00D611D231FAB
:10100000849F600D211D822F762F6A2F11249F57F8
:1010100050409AF0F1F088234AF0EE0FFF1FBB1FFB
:10102000661F771F881F91505040A9F79E3F5105BA
:1010300080F00C946D070C94B8075F3FE4F3983E82
:10104000D4F3869577956795B795F795E7959F5F64
:10105000C1F7FE2B880F911D9695879597F90895F6
:101060000E943B08A59F900DB49F900DA49F800DFA
:10107000911D11240895A29FB001B39FC001A39FA9
:10108000700D811D1124911DB29F700D811D1124C1
:10109000911D0895BB274A3031F4992322F4BDE213
:1010A000909581959F4F0C945608BB27FB015527BF
:1010B000AA27880F991FAA1FA41710F0A41B8395B5
:1010C0005051B9F7A05DAA3308F0A95DA19300972C
:1010D00079F7B111B1931192CB010C94890A2F9237
:1010E0003F924F925F926F927F928F929F92AF92B8
:1010F000BF92CF92DF92EF92FF920F931F93CF9305
:10110000DF93CDB7DEB72B97CDBFDEBF6C017B0180
:101110008A01FC0116821782838181FFCCC1CE0136
:1011200001963C01F6019381F70193FD859193FFB0
:1011300081917F01882309F4BAC1853239F493FD86
:10114000859193FF81917F01853229F4B60190E06A
:101150000E94990AE7CF912C212C312CFFE1F31545
:10116000D8F08B3279F038F4803279F08332A1F400
:10117000232D20611DC08D3261F0803369F4232D51
:10118000216016C0832D8260382EE32DE4603E2E50
:101190002AC0F32DF8601DC037FC2DC020ED280FAC
:1011A0002A3040F08E32B9F436FC81C1232D206400
:1011B000322E19C036FE06C08AE0989E200D1124FA
:1011C000922E11C0EAE02E9E200D1124222EF32D26
:1011D000F0623F2E08C08C3621F4832D8068382EB3
:1011E00002C0883641F4F70193FD859193FF819108
:1011F0007F018111B3CF982F9F7D9554933028F4B0
:101200000C5F1F4F9FE399830DC0833631F0833706
:1012100071F0833509F059C021C0F80180818983BC
:101220000E5F1F4F88248394912C530113C0280113
:10123000F2E04F0E511CF801A080B18036FE03C0D1
:10124000692D70E002C06FEF7FEFC5010E947E0A3A
:101250004C018201F32DFF773F2E16C0280122E0BA
:10126000420E511CF801A080B18036FE03C0692DEA
:1012700070E002C06FEF7FEFC5010E94730A4C015E
:10128000F32DF0683F2E820133FC1BC0822D90E0CD
:1012900088169906B0F4B60180E290E00E94990A9F
:1012A0002A94F4CFF50137FC859137FE81915F01D7
:1012B000B60190E00E94990A21102A9421E0821A36
:1012C00091088114910471F7E8C0843611F08936D1
:1012D00041F5F80137FE07C06081718182819381F9
:1012E0000C5F1F4F08C060817181072E000C880BB6
:1012F000990B0E5F1F4FF32DFF763F2E97FF09C00E
:1013000090958095709561957F4F8F4F9F4FF068B6
:101310003F2E2AE030E0A3010E94D50A882E8618CD
:1013200045C0853731F4232D2F7EB22E2AE030E0E0
:1013300025C0932D997FB92E8F36C1F018F48835CA
:1013400079F0B5C0803719F0883721F0B0C0E92FA7
:10135000E061BE2EB4FE0DC0FB2DF460BF2E09C0AF
:1013600034FE0AC0292F2660B22E06C028E030E0E5
:1013700005C020E130E002C020E132E0F801B7FE14
:1013800007C060817181828193810C5F1F4F06C00D
:101390006081718180E090E00E5F1F4FA3010E9489
:1013A000D50A882E8618FB2DFF773F2E36FE0DC0FE
:1013B000232D2E7FA22E891458F434FE0BC032FC4C
:1013C00009C0832D8E7EA82E05C0B82CA32C03C087
:1013D000B82C01C0B92CA4FE0FC0FE01E80DF11D10
:1013E0008081803321F49A2D997EA92E09C0A2FE16
:1013F00006C0B394B39404C08A2D867809F0B394E0
:10140000A3FC11C0A0FE06C0B21488F4280C922CD4
:101410009B180EC0B21460F4B60180E290E00E9406
:10142000990AB394F7CFB21418F42B1802C0982C71
:10143000212CA4FE10C0B60180E390E00E94990A1E
:10144000A2FE17C0A1FC03C088E790E002C088E5B7
:1014500090E0B6010CC08A2D867859F0A1FE02C03A
:101460008BE201C080E2A7FC8DE2B60190E00E9411
:10147000990A891438F4B60180E390E00E94990A31
:101480009A94F7CF8A94F301E80DF11D8081B6019B
:1014900090E00E94990A8110F5CF222009F442CEF3
:1014A000B60180E290E00E94990A2A94F6CFF601F4
:1014B0008681978102C08FEF9FEF2B96CDBFDEBF55
:1014C000DF91CF911F910F91FF90EF90DF90CF9020
:1014D000BF90AF909F908F907F906F905F904F9054
:1014E0003F902F900895FC010590615070400110CD
:1014F000D8F7809590958E0F9F1F0895FC0161503D
:10150000704001900110D8F7809590958E0F9F1F25
:101510000895DC01FC01672F71917723E1F7329781
:1015200004C07C916D9370836291AE17BF07C8F3BE
:1015300008950F931F93CF93DF93FB01238121FD28
:1015400003C08FEF9FEF2CC022FF16C0468157814A
:10155000248135814217530744F4A081B1819D0154
:101560002F5F3F4F208331838C93268137812F5FFC
:101570003F4F2683378314C08B01EC01FB010084AD
:10158000F185E02D0995892BE1F6D80116968D910C
:101590009C911797019616968D939C931797CE0161
:1015A000DF91CF911F910F910895FA01AA2728305A
:1015B00051F1203181F1E8946F936E7F6E5F7F4F20
:1015C0008F4F9F4FAF4FB1E03ED0B4E03CD0670F9C
:1015D000781F891F9A1FA11D680F791F8A1F911DEF
:1015E000A11D6A0F711D811D911DA11D20D009F43F
:1015F00068943F912AE0269F11243019305D319381
:10160000DEF6CF010895462F4770405D4193B3E069
:101610000FD0C9F7F6CF462F4F70405D4A3318F010
:10162000495D31FD4052419302D0A9F7EACFB4E0C1
:10163000A6959795879577956795BA95C9F7009779
:101640006105710508959B01AC010A2E069457951A
:10165000479537952795BA95C9F7620F731F841F71
:10166000951FA01D0895DC0128ED209334006C9394
:061670000895F894FFCF7D
:10167600881388138813881388130000BE43013229
:10168600416C6C2073797374656D7320676F0A0003
:00000001FF
