S00B0000484D492E737265633B
S11300000C9458000C9477000C9477000C947700AF
S11300100C9477000C9477000C9477000C94770080
S11300200C9477000C9477000C9477000C94770070
S11300300C9477000C9477000C94AB110C9477001B
S11300400C9477000C9477000C9477000C94770050
S11300500C9477000C9477000C9477000C94770040
S11300600C9458110C9477000C9477000C9477003E
S11300700C9477000C9477000C9477000C94770020
S11300800C94B4120C9477000C94DB120C9477004B
S11300900C9477000C9477000C9477000C94770000
S11300A00C9477000C9477000C9477000C947700F0
S11300B011241FBECFEFCDBFDFE7DEBF11E4A0E008
S11300C0B0E4E2E1F0E300E00BBF02C007900D9260
S11300D0A436B107D9F722E4A4E6B1E401C01D9225
S11300E0A836B207E1F70E94F2100C9407180C949A
S11300F0000081E080930A060895282F30E02093C1
S11301008B4130938C41811103C01092080613C0B7
S1130110813019F4809308060EC0823019F480935C
S1130120080609C0833019F48093080604C084309B
S113013011F4809308060E9479000895E0EBF0E042
S1130140808183608083E0E0F6E082818D60828339
S113015080818160808380818083808182608083CC
S113016081E00E947D000895482F50E020918B414A
S113017030918C414217530711F00E947D00809109
S11301800D0680FFFCCF8091100690911106089512
S11301906CE188E690E00E9401180895E0EAF4E03A
S11301A08FE08283818385830895E0E6F4E080EE26
S11301B0828383E0858B868B878B08958091704141
S11301C0813029F40E94990510927041089580911C
S11301D06F41813029F40E94A60410926F41089562
S11301E080916E41813021F40E94620610926E412A
S11301F0089580910140813031F4E0EAF4E0848193
S11302008160848307C0811105C0E0EAF4E0848141
S11302108E7F848380910040813031F4E0EAF4E001
S113022084818260848307C0811105C0E0EAF4E020
S113023084818D7F848380916D41813031F4E0EA43
S1130240F4E084818460848307C0811105C0E0EAFE
S1130250F4E084818B7F848380916C41813031F41C
S1130260E0EAF4E08481886084830895811105C004
S1130270E0EAF4E08481877F84830895CF93DF9359
S1130280009759F4E0E0FAE081818F7B8183E0E01C
S1130290F4E08581846085831AC09C012150310972
S11302A024363105A0F4EC01CC0FDD1FCC0FDD1F8B
S11302B0E0E0FAE081818064818388EC90E00E9430
S11302C09B1180E991E08C1B9D0B0E949B11DF9197
S11302D0CF910895DF92EF92FF920F931F93CF93E4
S11302E0DF93CDB7DEB72597CDBFDEBF80917341D5
S11302F08130F9F4109273418CE30E94091281E475
S11303000E9409128091014090E00E945B1280914A
S1130310004090E00E945B1280916D4190E00E9449
S11303205B1280916C4190E00E945B128EE30E940C
S1130330091280917141813009F06EC0809371413E
S11303408CE30E94091282E50E9409128091804187
S113035090E00E945B1280911840909119409F9305
S11303608F930F2EF3E3EF2EF1E4FF2EF02DFF9287
S1130370EF921F920F2EF5E0DF2EF02DDF928E010B
S11303800F5F1F4F1F930F930E94061544E0B8019F
S113039080E00E943D12198280917D4190917E41BE
S11303A09F938F93FF92EF921F92DF921F930F936D
S11303B00E94061544E0B80180E00E943D121982B3
S11303C080917B4190917C419F938F93FF92EF9218
S11303D01F92DF921F930F930E94061544E0B80109
S11303E080E00E943D1219828091794190917A4176
S11303F09F938F93FF92EF921F92DF921F930F931D
S11304000E940615CDBFDEBF44E0B80180E00E9423
S11304103D128EE30E94091280917241813031F5C0
S1130420109272418CE30E94091287E40E9409121F
S113043080917741909178419F938F9388E391E4E1
S11304409F938F931F9284E08F938E010F5F1F4FB2
S11304501F930F930E94061543E0B80180E00E94A9
S11304603D128EE30E940912CDBFDEBF2596CDBF9B
S1130470DEBFDF91CF911F910F91FF90EF90DF903E
S11304800895FC01608371830895FC0160830895DD
S1130490CF93DF9300D01F92CDB7DEB70E947F12B7
S11304A080918A41882309F436C180919B41823529
S11304B0A1F4EBE9F1E48181898382818A838381D8
S11304C08B8384818C83CE0101960E94BB14BC0172
S11304D088E691E40E94410217C18934A1F4EBE952
S11304E0F1E48181898382818A8383818B838481FE
S11304F08C83CE0101960E94BB14BC0184E691E476
S11305000E94410201C18234A1F4EBE9F1E481814A
S1130510898382818A8383818B8384818C83CE01C6
S113052001960E94BB14BC0186E691E40E9441023C
S1130530EBC08434A1F4EBE9F1E481818983828105
S11305408A8383818B8384818C83CE0101960E946C
S1130550BB14BC018AE691E40E944102D5C08734F1
S113056009F048C0EBE9F1E48181898382818A83BF
S113057083818B83CE0101960E94BB14BC0187E763
S113058091E40E944102809175418111BDC0809126
S1130590774190917841892B31F460E086E791E4CA
S11305A00E944502B1C08091774190917841892B96
S11305B091F080917741909178418536910558F476
S11305C061E086E791E40E94450260E085E791E4FA
S11305D00E94450299C08091774190917841853677
S11305E0910508F491C064E670E087E791E40E9405
S11305F041028AC0893511F5EBE9F1E481818983EF
S113060082818A8383818B8384818C83CE0101964A
S11306100E94BB14BC0188E190E40E9441028091D5
S1130620184090911940803A9F4008F46DC060EAE8
S11306307FE088E190E40E94410266C0803709F5BA
S1130640EBE9F1E48181898382818A8383818B83CD
S113065084818C83CE0101960E94BB14BC018DE77A
S113066091E40E94410280917D4190917E41892BC9
S113067009F04AC060E070E08DE791E40E94410215
S113068043C0893601F5EBE9F1E4818189838281F4
S11306908A8383818B8384818C83CE0101960E941B
S11306A0BB14BC018BE791E40E94410280917B4121
S11306B090917C41892B41F560E070E08BE791E4F7
S11306C00E94410221C08436F9F4EBE9F1E481810E
S11306D0898382818A8383818B8384818C83CE0105
S11306E001960E94BB14BC0189E791E40E94410277
S11306F08091794190917A41892B31F460E070E0E6
S113070089E791E40E94410210929B4160E08AE8EB
S113071091E40E9445022396CDBFDEBFDF91CF91C5
S11307200895CF92DF92EF92FF92CF93DF93EB0184
S1130730BC0180E090E00E94C0136B017C01BE010B
S113074080E090E00E94C0139B01AC0160E070E087
S113075088EC92E40E941F139B01AC01C701B6010F
S11307600E944E140E949113CB01DF91CF91FF9010
S1130770EF90DF90CF900895CF930E94C8000E941D
S1130780DA100E94CE000E94EA11C0913D418C2FE4
S11307900E9436100E94D5000E949E000E9484117F
S11307A00E94A01183ED90E30197F1F700C00000CF
S11307B08C2F0E94A31083ED90E30197F1F700C002
S11307C000000E94E503CF910895CF9387E20E9431
S11307D09F102FEF89E698E1215080409040E1F787
S11307E000C0000040E060E087E20E9476106FE302
S11307F071E487E20E94AA1043E060E087E20E946D
S113080076106FE371E487E20E94AA10C1E027C06A
S113081040E06C2F87E20E94761061E471E487E285
S11308200E94AA102FEF86E791E02150804090406B
S1130830E1F700C0000043E06C2F87E20E947610CD
S113084061E471E487E20E94AA102FEF86E791E049
S1130850215080409040E1F700C00000CF5FC331D9
S1130860B8F240E063E187E20E94761063E471E449
S113087087E20E94AA1043E063E187E20E947610B7
S113088063E471E487E20E94AA1041E060E087E239
S11308900E94761065E471E487E20E94AA1041E0A8
S11308A063E187E20E94761065E471E487E20E94C6
S11308B0AA1042E060E087E20E94761065E471E4E9
S11308C087E20E94AA1042E063E187E20E94761068
S11308D065E471E487E20E94AA1041E062E087E2E5
S11308E00E94761067E471E487E20E94AA102FEF59
S11308F08FE097E2215080409040E1F700C0000073
S11309006DE471E487E20E94AA102FEF8FE097E272
S1130910215080409040E1F700C0000042E069E0CF
S113092087E20E94761060E571E487E20E94AA10D3
S11309302FEF8BE792E9215080409040E1F700C00F
S1130940000081E080937441CF91089580918141AA
S1130950882301F180917F418130E1F080918141D0
S113096081508093814180918141813039F410928A
S113097030418093834110928241D7C0809181415C
S11309808111D3C081E08093304110928341109251
S11309908241CBC080917F41813009F0C6C08091F3
S11309A01A40823009F094C080918141813009F568
S11309B080910E4090910F40209116403091174045
S11309C0821B930B20911840309119408217930792
S11309D008F4ABC020911840309119408091164022
S11309E090911740820F931F809318409093194061
S11309F09CC080918141823009F580910C40909196
S1130A000D402091144030911540821B930B20918E
S1130A107D4130917E418217930708F486C020916E
S1130A207D4130917E418091144090911540820F18
S1130A30931F80937D4190937E4177C08091814143
S1130A40833009F580910A4090910B402091124027
S1130A5030911340821B930B20917B4130917C4158
S1130A608217930708F461C020917B4130917C4147
S1130A708091124090911340820F931F80937B4189
S1130A8090937C4152C080918141843009F04DC0E3
S1130A90809108409091094020911040309111407C
S1130AA0821B930B2091794130917A4182179307ED
S1130AB0E0F12091794130917A41809110409091F8
S1130AC01140820F931F8093794190937A412DC0F6
S1130AD084E080931A4080918141823031F52091E5
S1130AE077413091784180910240909103402817DA
S1130AF03907D8F4209177413091784180910440AE
S1130B0090910540820F931F809377419093784191
S1130B1080917741909178418436910530F084E654
S1130B2090E0809377419093784181E08093744181
S1130B3008959091814180913141981710F58091E9
S1130B407F418130F1F0809181418F5F80938141B9
S1130B5080918141843041F41092304181E080934E
S1130B60834110928241AAC080918141853009F06D
S1130B70A5C0109230411092834181E0809382415C
S1130B809DC080917F41813009F098C080911A40C6
S1130B90823009F06EC0809181418130E9F4809106
S1130BA01840909119402091164030911740821BB3
S1130BB0930B809318409093194080911840909122
S1130BC019408536910508F079C084E690E0809359
S1130BD018409093194072C0809181418230B1F4E1
S1130BE080917D4190917E41892B09F467C0809169
S1130BF07D4190917E412091144030911540821B9B
S1130C00930B80937D4190937E4158C080918141A4
S1130C108330B1F480917B4190917C41892B09F41C
S1130C204DC080917B4190917C4120911240309144
S1130C301340821B930B80937B4190937C413EC075
S1130C40809181418430D1F58091794190917A41AC
S1130C50892BA1F18091794190917A4120911040A2
S1130C6030911140821B930B8093794190937A4188
S1130C7025C084E080931A40809181418230F1F450
S1130C808091774190917841892BC1F0809177418F
S1130C90909178412091044030910540821B930B40
S1130CA080937741909378418091774190917841F6
S1130CB0892B21F4109277411092784181E080933E
S1130CC07441089580911A40811134C0809181410A
S1130CD0811108C081E080931A4010923141109232
S1130CE08141C8C180918141813049F482E080937F
S1130CF01A401092814185E080933141BBC18091BB
S1130D008141823049F483E080931A4084E08093E7
S1130D10314110928141AEC180918141833009F00B
S1130D20A9C184E080931A4083E0809331411092FA
S1130D308141A0C180911A40813041F410921A403F
S1130D4083E0809331411092814194C180911A4093
S1130D50823009F08BC081E08093714180918141A0
S1130D60811114C080918041811108C081E0809379
S1130D7080411092014010926D417CC1809180416C
S1130D80813009F077C11092804174C18091814112
S1130D90813041F480917F41811104C081E08093CE
S1130DA07F4168C180918141813039F480917F41D4
S1130DB0813019F410927F415DC18091814182306C
S1130DC041F480917F41811104C081E080937F418F
S1130DD051C180918141823039F480917F418130C9
S1130DE019F410927F4146C180918141833041F4CE
S1130DF080917F41811104C081E080937F413AC199
S1130E0080918141833039F480917F41813019F49C
S1130E1010927F412FC180918141843041F48091AF
S1130E207F41811104C081E080937F4123C180917F
S1130E308141843039F480917F41813019F41092DA
S1130E407F4118C180918141853009F013C110920E
S1130E501A4083E0809331411092814181E0809374
S1130E603041109283411092824104C180911A4012
S1130E70833009F08CC081E080937341809181417B
S1130E80811119C08091014081110AC081E08093D1
S1130E9001408BE890E4809383409093844027C082
S1130EA0813029F51092014085E890E480938340D5
S1130EB0909384401CC0809181418130C1F4809121
S1130EC0004081110AC081E0809300408BE890E4E7
S1130ED080938140909382400AC0813041F4109203
S1130EE0004085E890E48093814090938240809113
S1130EF081418230D1F480916D4181110AC081E039
S1130F0080936D418BE890E480937F409093804080
S1130F10B1C0813009F0AEC010926D4185E890E413
S1130F2080937F4090938040A5C08091814183301D
S1130F30D1F480916C4181110AC081E080936C41AD
S1130F408BE890E480937D4090937E4093C0813001
S1130F5009F090C010926C4185E890E480937D4044
S1130F6090937E4087C080918141843009F082C093
S1130F7010921A4083E0809331411092814181E0C4
S1130F8080933041109283411092824173C08091CA
S1130F901A40843009F06EC081E0809372418091E0
S1130FA08141811120C08091764181110AC081E084
S1130FB0809376418BE890E480931F409093204087
S1130FC059C080917641813009F054C01092764125
S1130FD0109277411092784185E890E480931F4005
S1130FE09093204047C0809181418130D9F4809111
S1130FF0754181110AC081E08093754181E290E4DA
S113100080931D4090931E4035C08091754181307E
S113101089F51092754185E290E480931D40909388
S11310201E4028C080918141823099F4809175419D
S1131030811120C080917F41811104C081E080939F
S11310407F4118C080917F418130A1F410927F418B
S113105011C080918141833069F410921A408093C9
S113106031411092814181E080933041109283415B
S11310701092824181E0809374410895CF93DF936D
S1131080CDB7DEB72697CDBFDEBF80911A40813041
S113109009F005C140E06EE087E20E94761080917D
S11310A06841909169414AE061ED70E40E94D9146D
S11310B069E571E487E20E94AA1040E06EE087E2ED
S11310C00E947610E1EDF0E401900020E9F73197F9
S11310D0E15DF044E230F10531F46DE571E487E25D
S11310E00E94AA1007C0339729F46EE571E487E2E1
S11310F00E94AA1061ED70E487E20E94AA1041E008
S11311006EE087E20E94761080916641909167417B
S11311104AE06BEC70E40E94D914EBECF0E401902B
S11311200020E9F73197EB5CF044E130F10561F41C
S113113080E2898380E38A839EE29B838C8380910F
S1131140CB408D831E8231C0E230F10571F480E220
S1131150898380E38A838EE28B83EBECF0E48081E5
S11311608C8381818D831E8220C0E330F10571F46C
S113117080E28983EBECF0E480818A838EE28B83C6
S113118081818C8382818D831E820FC0349769F4A0
S1131190EBECF0E48081898381818A838EE28B8306
S11311A082818C8383818D831E8269E571E487E269
S11311B00E94AA1041E06EE087E20E947610BE0110
S11311C06F5F7F4F87E20E94AA1042E06EE087E2E1
S11311D00E94761080916441909165414AE065ECEB
S11311E070E40E94D914E5ECF0E401900020E9F7E2
S11311F03197E55CF044E230F10531F46DE571E4DA
S113120087E20E94AA1007C0339729F46EE571E4BF
S113121087E20E94AA1069E571E487E20E94AA109D
S113122042E06EE087E20E94761065EC70E487E2AB
S11312300E94AA1043E06EE087E20E94761080913B
S11312406A4190916B414AE06FEB70E40E94D914BB
S1131250EFEBF0E401900020E9F73197EF5BF04405
S1131260E230F10531F46DE571E487E20E94AA10E1
S113127007C0339729F46EE571E487E20E94AA104F
S113128069E571E487E20E94AA1043E06EE087E218
S11312900E9476106FEB70E487E20E94AA102696F3
S11312A0CDBFDEBFDF91CF91089580911A40843085
S11312B009F0D1C080917641813039F48BE890E413
S11312C080931F40909320400AC080917641811101
S11312D006C085E890E480931F409093204080915D
S11312E07741909178414AE06BE170E40E94D9140F
S11312F040E06EE087E20E94761069E571E487E2DF
S11313000E94AA1040E06EE087E20E94761060918D
S11313101F407091204087E20E94AA1041E06EE0D5
S113132087E20E94761069E571E487E20E94AA10C0
S113133041E06EE087E20E94761080917541813031
S113134031F461E270E487E20E94AA1009C080913E
S11313507541811105C065E270E487E20E94AA101C
S113136042E06EE087E20E94761069E571E487E26C
S11313700E94AA1042E06EE087E20E9476106BE1C0
S113138070E487E20E94AA1060E671E487E20E949A
S1131390AA1080918141811110C040E060E087E291
S11313A00E94761062E671E487E20E94AA1040E08F
S11313B060E087E20E9476103BC0809181418130D9
S11313C081F441E060E087E20E94761062E671E415
S11313D087E20E94AA1041E060E087E20E94761052
S11313E027C080918141823081F442E060E087E24D
S11313F00E94761062E671E487E20E94AA1042E03D
S113140060E087E20E94761013C0809181418330AE
S113141079F443E060E087E20E94761062E671E4CA
S113142087E20E94AA1043E060E087E20E947610FF
S113143080917F41813079F442E06DE087E20E943F
S1131440761062E671E487E20E94AA1042E06DE041
S113145087E20E947610089580917441813009F0EA
S1131460C4C51092744187E20E949F1080911A4073
S11314708111B5C040E061E087E20E9476106FE11F
S113148071E487E20E94AA1041E061E087E20E94D1
S1131490761061E171E487E20E94AA1042E061E003
S11314A087E20E94761065E071E487E20E94AA1048
S11314B043E061E087E20E9476106BEF70E487E21C
S11314C00E94AA1080918141811124C040E060E013
S11314D087E20E94761062E671E487E20E94AA1015
S11314E040E060E087E20E94761080917F41813085
S11314F009F07BC540E06DE087E20E94761062E669
S113150071E487E20E94AA1040E06DE087E20E9445
S113151076106BC580918141813021F541E060E016
S113152087E20E94761062E671E487E20E94AA10C4
S113153041E060E087E20E94761080917F41813033
S113154009F053C541E06DE087E20E94761062E63F
S113155071E487E20E94AA1041E06DE087E20E94F4
S1131560761043C580918141823021F542E060E0EC
S113157087E20E94761062E671E487E20E94AA1074
S113158042E060E087E20E94761080917F418130E2
S113159009F02BC542E06DE087E20E94761062E616
S11315A071E487E20E94AA1042E06DE087E20E94A3
S11315B076101BC580918141833009F016C543E044
S11315C060E087E20E94761062E671E487E20E949E
S11315D0AA1043E060E087E20E94761006C580917D
S11315E01A40813009F07AC040E060E087E20E944E
S11315F0761067EF70E487E20E94AA1041E060E091
S113160087E20E9476106CEE70E487E20E94AA10D2
S113161042E060E087E20E94761060EE70E487E2C8
S11316200E94AA1043E060E087E20E94761067ED12
S113163070E487E20E94AA1040E06EE087E20E9414
S1131640761080916841909169414AE061ED70E4BF
S11316500E94D91461ED70E487E20E94AA1041E06F
S11316606EE087E20E947610809166419091674116
S11316704AE06BEC70E40E94D9146BEC70E487E2EE
S11316800E94AA1042E06EE087E20E9476108091E8
S11316906441909165414AE065EC70E40E94D9147C
S11316A065EC70E487E20E94AA1043E06EE087E2F2
S11316B00E94761080916A4190916B414AE06FEBF1
S11316C070E40E94D9146FEB70E487E20E94AA10C0
S11316D043E063E187E20E94761087C480911A4058
S11316E0823009F0F6C280911840909119404AE086
S11316F067E570E40E94D91480917D4190917E4108
S11317004AE061E570E40E94D91480917B41909194
S11317107C414AE06BE470E40E94D91480917941E1
S113172090917A414AE065E470E40E94D914809172
S11317303041813009F0FFC040E061E087E20E945F
S1131740761066E770E487E20E94AA1041E061E047
S113175087E20E9476106DE670E487E20E94AA1088
S113176042E061E087E20E9476106AE670E487E274
S11317700E94AA1043E061E087E20E94761067E6C7
S113178070E487E20E94AA1040E06EE087E20E94C3
S1131790761080918041813031F46BE870E487E207
S11317A00E94AA1009C080918041811105C065E89A
S11317B070E487E20E94AA1041E06EE087E20E9492
S11317C0761067E570E487E20E94AA1042E06EE0BA
S11317D087E20E94761061E570E487E20E94AA1015
S11317E043E06EE087E20E9476106BE470E487E2E7
S11317F00E94AA1080918141811124C040E060E0E0
S113180087E20E94761062E671E487E20E94AA10E1
S113181040E060E087E20E94761080917F41813051
S113182009F0E3C340E06DE087E20E94761062E6CF
S113183071E487E20E94AA1040E06DE087E20E9412
S11318407610D3C380918141813021F541E060E07D
S113185087E20E94761062E671E487E20E94AA1091
S113186041E060E087E20E94761080917F41813000
S113187009F0BBC341E06DE087E20E94761062E6A6
S113188071E487E20E94AA1041E06DE087E20E94C1
S11318907610ABC380918141823021F542E060E053
S11318A087E20E94761062E671E487E20E94AA1041
S11318B042E060E087E20E94761080917F418130AF
S11318C009F093C342E06DE087E20E94761062E67D
S11318D071E487E20E94AA1042E06DE087E20E9470
S11318E0761083C380918141833009F07EC343E045
S11318F060E087E20E94761062E671E487E20E946B
S1131900AA1043E060E087E20E94761080917F4154
S1131910813009F06AC343E06DE087E20E947610EB
S113192062E671E487E20E94AA1043E06DE087E278
S11319300E9476105AC380918341813009F0F1C02E
S113194040E061E087E20E9476106DE670E487E291
S11319500E94AA1041E061E087E20E9476106AE6E4
S113196070E487E20E94AA1042E061E087E20E94EC
S1131970761067E670E487E20E94AA1043E061E013
S113198087E20E94761064E670E487E20E94AA105F
S113199040E06EE087E20E94761067E570E487E23B
S11319A00E94AA1041E06EE087E20E94761061E591
S11319B070E487E20E94AA1042E06EE087E20E948F
S11319C076106BE470E487E20E94AA1043E06EE0B4
S11319D087E20E94761065E470E487E20E94AA1010
S11319E080918141813021F540E060E087E20E94EE
S11319F0761062E671E487E20E94AA1040E060E09B
S1131A0087E20E94761080917F41813009F0EDC217
S1131A1040E06DE087E20E94761062E671E487E2BE
S1131A200E94AA1040E06DE087E20E947610DDC2B9
S1131A3080918141823021F541E060E087E20E949B
S1131A40761062E671E487E20E94AA1041E060E049
S1131A5087E20E94761080917F41813009F0C5C2EF
S1131A6041E06DE087E20E94761062E671E487E26D
S1131A700E94AA1041E06DE087E20E947610B5C290
S1131A8080918141833021F542E060E087E20E9449
S1131A90761062E671E487E20E94AA1042E060E0F8
S1131AA087E20E94761080917F41813009F09DC2C7
S1131AB042E06DE087E20E94761062E671E487E21C
S1131AC00E94AA1042E06DE087E20E9476108DC267
S1131AD080918141843009F088C243E060E087E26C
S1131AE00E94761062E671E487E20E94AA1043E045
S1131AF060E087E20E94761080917F41813009F096
S1131B0074C243E06DE087E20E94761062E671E4FD
S1131B1087E20E94AA1043E06DE087E20E947610FB
S1131B2064C280918241813009F05FC240E061E08B
S1131B3087E20E9476106AE670E487E20E94AA10A7
S1131B4041E061E087E20E94761067E670E487E294
S1131B500E94AA1042E061E087E20E94761064E6E7
S1131B6070E487E20E94AA1043E061E087E20E94E9
S1131B7076106DE570E487E20E94AA1040E06EE002
S1131B8087E20E94761061E570E487E20E94AA1061
S1131B9041E06EE087E20E9476106BE470E487E235
S1131BA00E94AA1042E06EE087E20E94761065E48B
S1131BB070E487E20E94AA1080918141823021F56D
S1131BC040E060E087E20E94761062E671E487E21A
S1131BD00E94AA1040E060E087E20E9476108091A3
S1131BE07F41813009F001C240E06DE087E20E944C
S1131BF0761062E671E487E20E94AA1040E06DE08C
S1131C0087E20E947610F1C180918141833021F5F1
S1131C1041E060E087E20E94761062E671E487E2C8
S1131C200E94AA1041E060E087E20E947610809151
S1131C307F41813009F0D9C141E06DE087E20E9423
S1131C40761062E671E487E20E94AA1041E06DE03A
S1131C5087E20E947610C9C180918141843021F5C8
S1131C6042E060E087E20E94761062E671E487E277
S1131C700E94AA1042E060E087E20E947610809100
S1131C807F41813009F0B1C142E06DE087E20E94FA
S1131C90761062E671E487E20E94AA1042E06DE0E9
S1131CA087E20E947610A1C180918141853009F0BC
S1131CB09CC143E060E087E20E94761062E671E432
S1131CC087E20E94AA1043E060E087E20E94761057
S1131CD08CC180911A40833009F052C18091304107
S1131CE0813009F0A9C040E061E087E20E947610EB
S1131CF064EB70E487E20E94AA1041E061E087E2AD
S1131D000E94761068EA70E487E20E94AA1042E01A
S1131D1061E087E20E9476106EE970E487E20E9437
S1131D20AA1043E061E087E20E94761063E970E460
S1131D3087E20E94AA1040E06EE087E20E947610DB
S1131D40609183407091844087E20E94AA1041E030
S1131D506EE087E20E94761060918140709182402B
S1131D6087E20E94AA1042E06EE087E20E947610A9
S1131D7060917F407091804087E20E94AA1043E006
S1131D806EE087E20E94761060917D4070917E4003
S1131D9087E20E94AA1080918141811110C040E025
S1131DA060E087E20E94761062E671E487E20E94B6
S1131DB0AA1040E060E087E20E94761016C180918C
S1131DC08141813081F441E060E087E20E94761035
S1131DD062E671E487E20E94AA1041E060E087E2D3
S1131DE00E94761002C180918141823081F442E0E8
S1131DF060E087E20E94761062E671E487E20E9466
S1131E00AA1042E060E087E20E947610EEC0809162
S1131E108141833009F0E9C043E060E087E20E9439
S1131E20761062E671E487E20E94AA1043E060E063
S1131E3087E20E947610D9C080918341813009F0F5
S1131E40D4C040E061E087E20E94761068EA70E462
S1131E5087E20E94AA1041E061E087E20E947610C6
S1131E606EE970E487E20E94AA1042E061E087E232
S1131E700E94761063E970E487E20E94AA1043E0AE
S1131E8061E087E20E9476106091914070919240E7
S1131E9087E20E94AA1040E06EE087E20E9476107A
S1131EA0609181407091824087E20E94AA1041E0D3
S1131EB06EE087E20E94761060917F4070918040CE
S1131EC087E20E94AA1042E06EE087E20E94761048
S1131ED060917D4070917E4087E20E94AA108091BB
S1131EE08141813081F440E060E087E20E94761015
S1131EF062E671E487E20E94AA1040E060E087E2B3
S1131F000E94761072C080918141823081F441E058
S1131F1060E087E20E94761062E671E487E20E9444
S1131F20AA1041E060E087E20E9476105EC08091D2
S1131F308141833081F442E060E087E20E947610C0
S1131F4062E671E487E20E94AA1042E060E087E260
S1131F500E9476104AC080918141843009F045C0C6
S1131F6043E060E087E20E94761062E671E487E273
S1131F700E94AA1043E060E087E20E94761035C018
S1131F8080911A40843089F580917741909178410D
S1131F904AE06BE170E40E94D91440E061E087E21A
S1131FA00E9476106EE370E487E20E94AA1041E07A
S1131FB061E087E20E94761066E370E487E20E94A3
S1131FC0AA1042E061E087E20E94761061E370E4C7
S1131FD087E20E94AA1043E061E087E20E94761043
S1131FE06AE270E487E20E94AA100E943E080E94FE
S1131FF055090895CF93C82F84600E94E71000000C
S11320008C2F8B7F0E94E7100000CF910895CF930F
S1132010C82F0E94E7108C2F0E94FA0FCF910895C9
S1132020CF93DF93D62FD07FD42B90E1699FB0015B
S11320301124C42FC62B0E94EC108D2F0E94E71090
S11320408D2F0E94FA0F8C2F0E94E7108C2F0E9474
S1132050FA0FDF91CF91089548E00E94101083EDAC
S113206090E30197F1F700C000000895CF93C82FC3
S11320708FE99FE00197F1F700C000008C2F0E94C8
S1132080EC1080E30E94071081EE94E00197F1F7D1
S113209000C0000080E30E94071094E29A95F1F7D3
S11320A000C080E30E94071080E18A95F1F700C028
S11320B080E20E94071090E19A95F1F700C068E26F
S11320C08C2F0E942C1068E08C2F0E942C1061E051
S11320D08C2F0E942C1066E08C2F0E942C1080E024
S11320E0CF91089549E00E9410100895653108F5D4
S11320F0453008F5411105C060680E942C1080E04D
S11321000895413031F4605C60680E942C1080E0D6
S11321100895423031F46C5660680E942C1080E0BF
S11321200895433051F46C5260680E942C1080E092
S1132130089581E0089581E0089580E0089561E0C4
S11321400E942C1008956FE00E942C1008950E94A4
S113215072100895FF920F931F93CF93DF93F82E7D
S11321608B01C0E0D0E004C021968F2D0E94A710FF
S1132170F801EC0FFD1F60816111F6CFDF91CF9163
S11321801F910F91FF90089580E090910509907C34
S113219031F08091050984FD07C081E008C0909169
S11321A005099C7019F403C082E001C084E088230F
S11321B061F30895E0E0F9E08BE4868382E08093A4
S11321C0E50581E0838317821086858308958093D3
S11321D008090E94C4100895880F809307090E947B
S11321E0C41008950E94BC032FEF80E792E02150B1
S11321F080409040E1F700C000007894109277414D
S1132200109278410E94F9000E94DE000E94480268
S1132210809184418C3321F4109284410E942C0AD1
S1132220809184418F5F8093844180917541813096
S1132230C1F4809176418823A1F00E94790081E065
S11322400E94B4006FEF7FE00E949103BC0187E716
S113225091E40E94410280917741909178410E94DB
S11322603E01209106403091074080917741909142
S113227078412817390751F080917641882331F04D
S113228080917741909178410E943E01609177411D
S11322907091784186E090E40E94410280918541EA
S11322A0813009F0AFCF0E946A0110928541AACF14
S11322B01F920F920FB60F9211248F93809169048D
S11322C085FF07C081E08093704180E280936904B8
S11322D015C08091690486FF07C081E080936E4138
S11322E080E4809369040AC080916904882334F4EB
S11322F081E080936F4180E8809369048F910F900F
S11323000FBE0F901F901895E0E0F4E08181846087
S113231081831092E605E0E0FAE0818183608183A5
S113232080E991E086A397A384A795A71082808172
S113233081608083089580932C0A90932D0A0895D8
S1132340E0E0FBE083E080838FE295E78487958774
S113235081E0858308951F920F920FB60F92112486
S11323608F939F93AF93BF938091CE419091CF4130
S1132370A091D041B091D1410196A11DB11D80938E
S1132380CE419093CF41A093D041B093D14180915D
S1132390CE419091CF41A091D041B091D1410A97C3
S11323A0A105B10559F41092CE411092CF4110927B
S11323B0D0411092D14181E08093854181E08093A6
S11323C0060BBF91AF919F918F910F900FBE0F900D
S11323D01F901895E0E2F8E086E191E0808791870C
S11323E08681826C8683A0E4B4E08C9181608C93B6
S11323F01D968C911D9782601D968C9385818068B3
S1132400858388E0878385818064858383E08783EF
S11324100895E0918741F0E0EE52FE4B8083809175
S113242087418F5F809387412091874130E080917D
S1132430324190E001962817390711F41092874130
S11324402091240825FF15C0E0918641F0E0EE526A
S1132450FE4B208120932208209186412F5F2093F8
S113246086412091864130E08217930711F410923F
S1132470864180E68A95F1F70895FF920F931F93A2
S1132480CF93DF93F82E8B01D42FC0E007C0F8015F
S1132490EC0FF11D80810E940912CF5FCD17B8F3B4
S11324A0FF2019F08AE00E940912DF91CF911F9159
S11324B00F91FF9008950F931F93CF93DF93CDB7A0
S11324C0DEB72A97CDBFDEBF4AE08E010F5F1F4FF4
S11324D0B8010E94D914F80101900020E9F731975E
S11324E0AF01401B510BB80180E00E943D122A96B7
S11324F0CDBFDEBFDF91CF911F910F91089529C009
S1132500E0918841F0E0EA5CFD4B90818091884144
S11325108F5F8093884180918841833311F41092B6
S113252088419C3329F41092CD4110929B4111C0F3
S11325309E3321F481E080938A410BC0E091CD4128
S1132540F0E0E556FE4B90838091CD418F5F809300
S1132550CD419091894180918841981721F08091D3
S11325608A41882369F208951F920F920FB60F9241
S113257011240BB60F928F93EF93FF938091200851
S1132580E0918941F0E0EA5CFD4B808380918941D0
S11325908F5F8093894180918941833311F4109234
S11325A08941FF91EF918F910F900BBE0F900FBE59
S11325B00F901F9018951F920F920FB60F9211242F
S11325C00BB60F922F933F938F939F93EF93FF93A9
S11325D090918641809187419817F9F0E091864166
S11325E0F0E0EE52FE4B8081809322088091864178
S11325F08F5F809386412091864130E08091324103
S113260090E001962817390711F410928641E0E210
S1132610F8E084818064848305C0E0E2F8E084818A
S113262080648483FF91EF919F918F913F912F91CB
S11326300F900BBE0F900FBE0F901F9018950E9425
S113264033130C9414140E940D1458F00E940614B1
S113265040F029F45F3F29F00C94FD1351110C94C0
S113266048140C9403140E94251468F39923B1F3BD
S1132670552391F3951B550BBB27AA2762177307A4
S1132680840738F09F5F5F4F220F331F441FAA1F38
S1132690A9F335D00E2E3AF0E0E832D091505040F4
S11326A0E695001CCAF72BD0FE2F29D0660F771FA2
S11326B0881FBB1F261737074807AB07B0E809F088
S11326C0BB0B802DBF01FF2793585F4F3AF09E3F0D
S11326D0510578F00C94FD130C9448145F3FE4F317
S11326E0983ED4F3869577956795B795F7959F5F50
S11326F0C9F7880F911D9695879597F90895E1E09C
S1132700660F771F881FBB1F621773078407BA07FA
S113271020F0621B730B840BBA0BEE1F88F7E09555
S113272008950E942D1488F09F5798F0B92F992787
S1132730B751B0F0E1F0660F771F881F991F1AF0A8
S1132740BA95C9F714C0B13091F00E944714B1E0B2
S113275008950C944714672F782F8827B85F39F0B1
S1132760B93FCCF3869577956795B395D9F73EF441
S113277090958095709561957F4F8F4F9F4F0895E9
S1132780E89409C097FB3EF4909580957095619507
S11327907F4F8F4F9F4F9923A9F0F92F96E9BB27BD
S11327A09395F695879577956795B795F111F8CF39
S11327B0FAF4BB0F11F460FF1BC06F5F7F4F8F4FA4
S11327C09F4F16C0882311F096E911C0772321F09A
S11327D09EE8872F762F05C0662371F096E8862F32
S11327E070E060E02AF09A95660F771F881FDAF789
S11327F0880F9695879597F9089597F99F6780E8CC
S113280070E060E008959FEF80EC089500240A943E
S11328101616170618060906089500240A941216B7
S11328201306140605060895092E0394000C11F4EA
S1132830882352F0BB0F40F4BF2B11F460FF04C097
S11328406F5F7F4F8F4F9F4F089557FD9058440FF0
S1132850551F59F05F3F71F04795880F97FB991FFB
S113286061F09F3F79F087950895121613061406B8
S1132870551FF2CF4695F1DF08C016161706180645
S1132880991FF1CF86957105610508940895E89420
S1132890BB2766277727CB0197F908950E94611417
S11328A00C9414140E94061438F00E940D1420F0A5
S11328B0952311F00C94FD130C94031411240C941F
S11328C048140E94251470F3959FC1F3950F50E0AE
S11328D0551F629FF001729FBB27F00DB11D639FCE
S11328E0AA27F00DB11DAA1F649F6627B00DA11D74
S11328F0661F829F2227B00DA11D621F739FB00D1A
S1132900A11D621F839FA00D611D221F749F332789
S1132910A00D611D231F849F600D211D822F762F22
S11329206A2F11249F5750409AF0F1F088234AF0FF
S1132930EE0FFF1FBB1F661F771F881F915050406B
S1132940A9F79E3F510580F00C94FD130C94481494
S11329505F3FE4F3983ED4F3869577956795B795F2
S1132960F795E7959F5FC1F7FE2B880F911D96950C
S1132970879597F90895FC0188279927E894219170
S11329802032E9F3293010F02E30C8F32B3241F015
S11329902D3239F4689404C00E94E414820F911D0E
S11329A0219120532A30C0F31EF4909581959F4FB6
S11329B00895BB274A3031F4992322F4BDE290955F
S11329C081959F4F0C94ED147AE0979F902D879FEB
S11329D0802D910D11240895BB27FB015527AA27AB
S11329E0880F991FAA1FA41710F0A41B8395505198
S11329F0B9F7A05DAA3308F0A95DA193009779F710
S1132A00B111B1931192CB010C9457170F931F93EB
S1132A10CF93DF93CDB7DEB72E97CDBFDEBF0D8941
S1132A201E898F89988D26E02C8309831A8397FF4A
S1132A3002C080E090E801978D839E83AE01455EDD
S1132A405F4F698D7A8DCE0101960E943D154D81AF
S1132A505E8157FD0AC02F813885421753070CF455
S1132A609A01F801E20FF31F10822E96CDBFDEBF4C
S1132A70DF91CF911F910F9108952F923F924F9222
S1132A805F926F927F928F929F92AF92BF92CF92FA
S1132A90DF92EF92FF920F931F93CF93DF93CDB703
S1132AA0DEB72B97CDBFDEBF6C017B018A01FC0131
S1132AB016821782838181FFCCC1CE0101963C012D
S1132AC0F6019381F70193FD859193FF81917F0135
S1132AD0882309F4BAC1853239F493FD859193FFB3
S1132AE081917F01853229F4B60190E00E94671735
S1132AF0E7CF912C212C312CFFE1F315D8F08B3248
S1132B0079F038F4803279F08332A1F4232D2061F6
S1132B101DC08D3261F0803369F4232D216016C00D
S1132B20832D8260382EE32DE4603E2E2AC0F32DDF
S1132B30F8601DC037FC2DC020ED280F2A3040F06E
S1132B408E32B9F436FC81C1232D2064322E19C093
S1132B5036FE06C08AE0989E200D1124922E11C0E4
S1132B60EAE02E9E200D1124222EF32DF0623F2E3A
S1132B7008C08C3621F4832D8068382E02C0883634
S1132B8041F4F70193FD859193FF81917F018111B8
S1132B90B3CF982F9F7D9554933028F40C5F1F4F2B
S1132BA09FE399830DC0833631F0833771F0833509
S1132BB009F059C021C0F801808189830E5F1F4F3D
S1132BC088248394912C530113C02801F2E04F0E02
S1132BD0511CF801A080B18036FE03C0692D70E05D
S1132BE002C06FEF7FEFC5010E944C174C018201B8
S1132BF0F32DFF773F2E16C0280122E0420E511C10
S1132C00F801A080B18036FE03C0692D70E002C0D7
S1132C106FEF7FEFC5010E9441174C01F32DF0685F
S1132C203F2E820133FC1BC0822D90E0881699064A
S1132C30B0F4B60180E290E00E9467172A94F4CFC2
S1132C40F50137FC859137FE81915F01B60190E073
S1132C500E94671721102A9421E0821A9108811496
S1132C60910471F7E8C0843611F0893641F5F80112
S1132C7037FE07C060817181828193810C5F1F4F91
S1132C8008C060817181072E000C880B990B0E5FC0
S1132C901F4FF32DFF763F2E97FF09C09095809527
S1132CA0709561957F4F8F4F9F4FF0683F2E2AE0BC
S1132CB030E0A3010E94A317882E861845C08537EB
S1132CC031F4232D2F7EB22E2AE030E025C0932D3F
S1132CD0997FB92E8F36C1F018F4883579F0B5C0D4
S1132CE0803719F0883721F0B0C0E92FE061BE2E9B
S1132CF0B4FE0DC0FB2DF460BF2E09C034FE0AC023
S1132D00292F2660B22E06C028E030E005C020E15D
S1132D1030E002C020E132E0F801B7FE07C0608174
S1132D207181828193810C5F1F4F06C06081718124
S1132D3080E090E00E5F1F4FA3010E94A317882E2E
S1132D408618FB2DFF773F2E36FE0DC0232D2E7FD8
S1132D50A22E891458F434FE0BC032FC09C0832D12
S1132D608E7EA82E05C0B82CA32C03C0B82C01C09D
S1132D70B92CA4FE0FC0FE01E80DF11D8081803343
S1132D8021F49A2D997EA92E09C0A2FE06C0B394FF
S1132D90B39404C08A2D867809F0B394A3FC11C0BF
S1132DA0A0FE06C0B21488F4280C922C9B180EC006
S1132DB0B21460F4B60180E290E00E946717B39405
S1132DC0F7CFB21418F42B1802C0982C212CA4FEAF
S1132DD010C0B60180E390E00E946717A2FE17C0FE
S1132DE0A1FC03C088E790E002C088E590E0B6014A
S1132DF00CC08A2D867859F0A1FE02C08BE201C076
S1132E0080E2A7FC8DE2B60190E00E946717891466
S1132E1038F4B60180E390E00E9467179A94F7CFE4
S1132E208A94F301E80DF11D8081B60190E00E94BF
S1132E3067178110F5CF222009F442CEB60180E253
S1132E4090E00E9467172A94F6CFF6018681978155
S1132E5002C08FEF9FEF2B96CDBFDEBFDF91CF91E6
S1132E601F910F91FF90EF90DF90CF90BF90AF90A4
S1132E709F908F907F906F905F904F903F902F9096
S1132E800895FC010590615070400110D8F78095B9
S1132E9090958E0F9F1F0895FC0161507040019022
S1132EA00110D8F7809590958E0F9F1F0895DC012F
S1132EB0FC01672F71917723E1F7329704C07C916D
S1132EC06D9370836291AE17BF07C8F308950F9393
S1132ED01F93CF93DF93FB01238121FD03C08FEF69
S1132EE09FEF2CC022FF16C0468157812481358173
S1132EF04217530744F4A081B1819D012F5F3F4FD6
S1132F00208331838C93268137812F5F3F4F268323
S1132F10378314C08B01EC01FB010084F185E02DA3
S1132F200995892BE1F6D80116968D919C911797F6
S1132F30019616968D939C931797CE01DF91CF91AE
S1132F401F910F910895FA01AA27283051F12031D9
S1132F5081F1E8946F936E7F6E5F7F4F8F4F9F4F29
S1132F60AF4FB1E03ED0B4E03CD0670F781F891F6B
S1132F709A1FA11D680F791F8A1F911DA11D6A0F39
S1132F80711D811D911DA11D20D009F468943F91EC
S1132F902AE0269F11243019305D3193DEF6CF01EB
S1132FA00895462F4770405D4193B3E00FD0C9F7B1
S1132FB0F6CF462F4F70405D4A3318F0495D31FD1E
S1132FC04052419302D0A9F7EACFB4E0A695979571
S1132FD0879577956795BA95C9F700976105710547
S1132FE008959B01AC010A2E069457954795379591
S1132FF02795BA95C9F7620F731F841F951FA01DEB
S11330000895DC0128ED209334006C930895F8941E
S1053010FFCFEC
S11330120101640005000004E803E803E803A00FCB
S11330220500050005006400D00701300025408535
S11330324041444300554152540052657475726EC6
S1133042004C6F616400436F6E74726F6C00456E66
S113305261626C65005B4E2F415D005B4E2F415DEA
S1133062005B4E2F415D005B4E2F415D0052657443
S113307275726E004B44004B49004B50005365740B
S1133082706F696E7400456E61626C65008540857F
S113309240854085405B4F66665D00205B4F6E5DF8
S11330A2002941416E616C6F67206F757400416E37
S11330B2616C6F6720696E004469676974616C2092
S11330C26F7574004469676974616C20696E005B92
S11330D24E2F415D005B4E2F415D005B4E2F415DE3
S11330E2005B4E2F415D00506F7765725B575D0048
S11330F243757272656E745B6D415D004261636B10
S1133102454D465B565D0052706D0047656E6572B3
S113311261746F7200494F2073657474696E6773CA
S113312200526567756C61746F726D6F64650053EC
S1133132686F7720646174610052657475726E0001
S11331420103322530346400253033640027004FF4
S1133152002D0030007C00546869732000697300FC
S1133162544845205249474700202020202020006F
S107317225003E00F2
S9030000FC
