S01100004D61696E626F6172642E7372656386
S11300000C947A000C9499000C9499000C94990027
S11300100C9499000C9499000C9499000C949900F8
S11300200C9499000C9499000C9499000C949900E8
S11300300C9499000C9499000C9499000C949900D8
S11300400C9499000C9499000C9499000C949900C8
S11300500C9499000C9499000C9499000C949900B8
S11300600C9489010C9499000C94E9000C94990067
S11300700C9499000C9499000C9499000C94990098
S11300800C9499000C9499000C9499000C94990088
S11300900C9499000C9499000C9499000C94990078
S11300A00C9499000C9499000C9499000C94990068
S11300B00C9499000C9463010C9499000C94B8016D
S11300C00C9499000C9499000C9499000C94990048
S11300D00C9499000C944E020C9499000C947502A3
S11300E00C9499000C9499000C9499000C94990028
S11300F00C94990011241FBECFEFCDBFDFE7DEBF04
S113010010E4A0E0B0E4EAEEFAE000E00BBF02C0C5
S113011007900D92AC31B107D9F721E4ACE1B0E41A
S113012001C01D92AC30B207E1F70E9457010C9454
S113013073050C94000081E080931C40809127405B
S113014090912840892B49F48091100690911106D2
S1130150809308409093094008958091274090919E
S11301602840019749F480911006909111068093DC
S1130170064090930740089580912740909128402D
S1130180029749F4809110069091110680930440DF
S113019090930540089580912740909128400397BB
S11301A049F4809110069091110680930240909337
S11301B0034008958091274090912840049741F48A
S11301C08091100690911106809300409093014015
S11301D008951F920F920FB60F9211240BB60F922F
S11301E02F933F934F935F936F937F938F939F933B
S11301F0AF93BF93EF93FF930E949B00FF91EF9106
S1130200BF91AF919F918F917F916F915F914F912A
S11302103F912F910F900BBE0F900FBE0F901F9028
S113022018956CE188E690E00E946D050895E0E67B
S1130230F4E080EE82838BE0858B868B878BE0E213
S1130240F4E084E0828388E08183089580911F40F4
S1130250813019F410921F40089580911E4081301E
S113026019F410921E40089580911D40813011F4BC
S113027010921D4008950E9411010E94E0010E9405
S113028017010E944A0183ED90E30197F1F700C042
S113029000000895E0E0F9E083E7868382E080933C
S11302A0E50581E0838317821086858308950E9483
S11302B03B014FE06BE070E480E00E9430027894F0
S11302C00E942601FDCF1F920F920FB60F921124A8
S11302D00BB60F928F939F93EF93FF938091694096
S11302E090916A4001968093694090936A40E0E25D
S11302F0F4E088E08783818588608187FF91EF91AE
S11303009F918F910F900BBE0F900FBE0F901F9077
S113031018951F920F920FB60F9211248F9388E0B5
S1130320809327048091690485FF07C081E080934E
S11303301F4080E28093690415C08091690486FFA0
S113034007C081E080931D4080E4809369040AC063
S113035080916904882334F481E080931E4080E80E
S1130360809369048F910F900FBE0F901F90189582
S11303701F920F920FB60F9211248F939F93AF93F6
S1130380BF938091204090912140A0912240B09150
S113039023400196A11DB11D8093204090932140DC
S11303A0A0932240B093234081E080934B0ABF91F5
S11303B0AF919F918F910F900FBE0F901F90189542
S11303C0E0E6F8E086E191E0808791878681826C9F
S11303D08683A0E2B4E08C9181608C931D968C910D
S11303E01D9782601D968C9385818068858388E043
S11303F0878383E087830895E0912540F0E0EA58FD
S1130400FF4B8083809125408F5F8093254020910E
S1130410254030E080910A4090E001962817390782
S113042011F4109225402091640825FF15C0E09135
S11304302440F0E0EA58FF4B208120936208209189
S113044024402F5F209324402091244030E08217E1
S1130450930711F41092244080E68A95F1F70895E9
S1130460FF920F931F93CF93DF93F82E8B01D42F1A
S1130470C0E007C0F801EC0FF11D80810E94FC016F
S1130480CF5FCD17B8F3FF2019F08AE00E94FC017A
S1130490DF91CF911F910F91FF9008951F920F92BA
S11304A00FB60F9211240BB60F928F93EF93FF9315
S11304B080916008E0912640F0E0E855FF4B80838E
S11304C0809126408F5F809326408091264083331D
S11304D011F410922640FF91EF918F910F900BBE73
S11304E00F900FBE0F901F9018951F920F920FB68A
S11304F00F9211240BB60F922F933F938F939F93D8
S1130500EF93FF9390912440809125409817F9F040
S1130510E0912440F0E0EA58FF4B80818093620828
S1130520809124408F5F809324402091244030E0C8
S113053080910A4090E001962817390711F410922F
S11305402440E0E6F8E084818064848305C0E0E62A
S1130550F8E0848180648483FF91EF919F918F916F
S11305603F912F910F900BBE0F900FBE0F901F90D5
S113057018952F923F924F925F926F927F928F9233
S11305809F92AF92BF92CF92DF92EF92FF920F931E
S11305901F93CF93DF93CDB7DEB72B97CDBFDEBFCD
S11305A06C017B018A01FC0116821782838181FF21
S11305B0CCC1CE0101963C01F6019381F70193FD74
S11305C0859193FF81917F01882309F4BAC1853213
S11305D039F493FD859193FF81917F01853229F44C
S11305E0B60190E00E94D304E7CF912C212C312C4A
S11305F0FFE1F315D8F08B3279F038F4803279F0DA
S11306008332A1F4232D20611DC08D3261F080332B
S113061069F4232D216016C0832D8260382EE32DCA
S1130620E4603E2E2AC0F32DF8601DC037FC2DC0B7
S113063020ED280F2A3040F08E32B9F436FC81C107
S1130640232D2064322E19C036FE06C08AE0989EFF
S1130650200D1124922E11C0EAE02E9E200D1124AB
S1130660222EF32DF0623F2E08C08C3621F4832D08
S11306708068382E02C0883641F4F70193FD8591D5
S113068093FF81917F018111B3CF982F9F7D955462
S1130690933028F40C5F1F4F9FE399830DC083367A
S11306A031F0833771F0833509F059C021C0F80166
S11306B0808189830E5F1F4F88248394912C53017A
S11306C013C02801F2E04F0E511CF801A080B18044
S11306D036FE03C0692D70E002C06FEF7FEFC501E5
S11306E00E94C8044C018201F32DFF773F2E16C0EF
S11306F0280122E0420E511CF801A080B18036FE90
S113070003C0692D70E002C06FEF7FEFC5010E9446
S1130710BD044C01F32DF0683F2E820133FC1BC055
S1130720822D90E088169906B0F4B60180E290E03C
S11307300E94D3042A94F4CFF50137FC859137FE47
S113074081915F01B60190E00E94D30421102A94A4
S113075021E0821A91088114910471F7E8C084366B
S113076011F0893641F5F80137FE07C060817181C7
S1130770828193810C5F1F4F08C060817181072EB5
S1130780000C880B990B0E5F1F4FF32DFF763F2E45
S113079097FF09C090958095709561957F4F8F4F15
S11307A09F4FF0683F2E2AE030E0A3010E940F051E
S11307B0882E861845C0853731F4232D2F7EB22E1E
S11307C02AE030E025C0932D997FB92E8F36C1F0F1
S11307D018F4883579F0B5C0803719F0883721F0DE
S11307E0B0C0E92FE061BE2EB4FE0DC0FB2DF46055
S11307F0BF2E09C034FE0AC0292F2660B22E06C0BF
S113080028E030E005C020E130E002C020E132E021
S1130810F801B7FE07C060817181828193810C5F0A
S11308201F4F06C06081718180E090E00E5F1F4F12
S1130830A3010E940F05882E8618FB2DFF773F2EFB
S113084036FE0DC0232D2E7FA22E891458F434FEBB
S11308500BC032FC09C0832D8E7EA82E05C0B82C97
S1130860A32C03C0B82C01C0B92CA4FE0FC0FE01F8
S1130870E80DF11D8081803321F49A2D997EA92EF3
S113088009C0A2FE06C0B394B39404C08A2D86782E
S113089009F0B394A3FC11C0A0FE06C0B21488F4FE
S11308A0280C922C9B180EC0B21460F4B60180E29E
S11308B090E00E94D304B394F7CFB21418F42B1829
S11308C002C0982C212CA4FE10C0B60180E390E055
S11308D00E94D304A2FE17C0A1FC03C088E790E0E5
S11308E002C088E590E0B6010CC08A2D867859F0E4
S11308F0A1FE02C08BE201C080E2A7FC8DE2B6013A
S113090090E00E94D304891438F4B60180E390E0A7
S11309100E94D3049A94F7CF8A94F301E80DF11D51
S11309208081B60190E00E94D3048110F5CF22208B
S113093009F442CEB60180E290E00E94D3042A94E6
S1130940F6CFF6018681978102C08FEF9FEF2B9639
S1130950CDBFDEBFDF91CF911F910F91FF90EF903C
S1130960DF90CF90BF90AF909F908F907F906F90CB
S11309705F904F903F902F900895FC010590615037
S113098070400110D8F7809590958E0F9F1F0895A1
S1130990FC016150704001900110D8F7809590954A
S11309A08E0F9F1F08950F931F93CF93DF93FB0127
S11309B0238121FD03C08FEF9FEF2CC022FF16C0BF
S11309C046815781248135814217530744F4A0811D
S11309D0B1819D012F5F3F4F208331838C9326810A
S11309E037812F5F3F4F2683378314C08B01EC017F
S11309F0FB010084F185E02D0995892BE1F6D801EE
S1130A0016968D919C911797019616968D939C93AB
S1130A101797CE01DF91CF911F910F910895FA019D
S1130A20AA27283051F1203181F1E8946F936E7F29
S1130A306E5F7F4F8F4F9F4FAF4FB1E03ED0B4E01A
S1130A403CD0670F781F891F9A1FA11D680F791F5B
S1130A508A1F911DA11D6A0F711D811D911DA11D6C
S1130A6020D009F468943F912AE0269F112430197C
S1130A70305D3193DEF6CF010895462F4770405D17
S1130A804193B3E00FD0C9F7F6CF462F4F70405DC6
S1130A904A3318F0495D31FD4052419302D0A9F721
S1130AA0EACFB4E0A6959795879577956795BA951B
S1130AB0C9F700976105710508959B01AC010A2EE1
S1130AC006945795479537952795BA95C9F7620FB8
S1130AD0731F841F951FA01D0895DC0128ED20932A
S10D0AE034006C930895F894FFCFDE
S1130AEA8813881388138813881332416C6C207313
S10F0AFA797374656D7320676F0A000047
S9030000FC
