S01100004D61696E626F6172642E7372656386
S11300000C947A000C9499000C9499000C94990027
S11300100C9499000C9499000C9499000C949900F8
S11300200C9499000C9499000C9499000C949900E8
S11300300C9499000C9499000C94A1030C94D8038B
S11300400C9499000C9499000C9499000C949900C8
S11300500C943B030C9448070C9499000C94960759
S11300600C94FC040C9499000C94E9000C949900F1
S11300700C9499000C9499000C9499000C94990098
S11300800C9499000C9499000C9499000C94990088
S11300900C9499000C9499000C9499000C94990078
S11300A00C9499000C9499000C9499000C94990068
S11300B00C9499000C94D6040C9499000C947F052C
S11300C00C9499000C9499000C9499000C94990048
S11300D00C9499000C946F070C9499000C94D40719
S11300E00C9499000C9499000C9499000C94990028
S11300F00C94990011241FBECFEFCDBFDFE7DEBF04
S113010010E4A0E0B0E4E6EBF4E100E00BBF02C0D1
S113011007900D92AC36B107D9F722E4ACE6B0E40F
S113012001C01D92A036B207E1F70E9418040C9496
S1130130590A0C94000081E080936C408091CB407C
S11301409091CC40892B49F480911006909111062E
S1130150809308409093094008958091CB409091FA
S1130160CC40019749F48091100690911106809338
S113017006409093074008958091CB409091CC40E5
S1130180029749F4809110069091110680930440DF
S11301909093054008958091CB409091CC40039773
S11301A049F4809110069091110680930240909337
S11301B0034008958091CB409091CC40049741F442
S11301C08091100690911106809300409093014015
S11301D008951F920F920FB60F9211240BB60F922F
S11301E02F933F934F935F936F937F938F939F933B
S11301F0AF93BF93EF93FF930E949B00FF91EF9106
S1130200BF91AF919F918F917F916F915F914F912A
S11302103F912F910F900BBE0F900FBE0F901F9028
S1130220189583E88093B20081E48093A00687EC5C
S113023090E00197F1F700C0000008956CE188E6B2
S113024090E00C94530ACF93DF9300D000D0CDB745
S1130250DEB70E94150780919840882309F4CFC027
S1130260E9E9F0E401900020E9F73197E959F04415
S11302707F9708F0C4C080919940803319F410929C
S1130280864005C0813319F481E0809386408091D3
S11302909A40803319F41092854005C0813319F4D3
S11302A081E08093854080919B40803319F41092C3
S11302B0884005C0813319F481E08093884080919F
S11302C09C40803319F41092874005C0813319F49F
S11302D081E08093874080919D40803319F410928F
S11302E0204105C0813319F481E08093204180913D
S11302F02041813009F083C080919E4089838091A0
S11303009F408A838091A0408B838091A1408C83FD
S1130310CE0101960E94F109E0911E41F0911F4126
S11303208083918360E470E4CE0101960E940F0AF9
S11303308091A24089838091A3408A838091A440C4
S11303408B838091A5408C83CE0101960E94F10994
S1130350E0912141F09122418083918360E470E433
S1130360CE0101960E940F0A8091A6408983809154
S1130370A7408A838091A8408B838091A9408C8375
S1130380CE0101960E94F109E0912341F0912441AC
S11303908083918360E470E4CE0101960E940F0A89
S11303A08091AA4089838091AB408A838091AC403C
S11303B08B838091AD408C83CE0101960E94F1091C
S11303C0E0912541F09126418083918360E470E4BB
S11303D0CE0101960E940F0A8091AE4089838091DC
S11303E0AF408A838091B0408B83CE0101960E94F6
S11303F0F109E0911C41F0911D4180839183249681
S1130400CDBFDEBFDF91CF91089560E070E0CB01F6
S113041008950E941E010E94EB050E94110683EDBF
S113042090E30197F1F700C000000E9411010E94BF
S113043061050E944F050C948F038F929F92AF9297
S1130440BF92CF92DF92EF92FF920F931F93CF93BD
S1130450DF93CDB7DEB7FC0140835183628373839E
S11304600483158326833783C08AD18AE28AF38A78
S1130470848A958AA68AB78A8F859889A989BA8930
S1130480808F918FA28FB38FDF91CF911F910F91A6
S1130490FF90EF90DF90CF90BF90AF909F908F90A0
S11304A008954F925F926F927F928F929F92AF9234
S11304B0BF92CF92DF92EF92FF92CF93DF93CDB7AB
S11304C0DEB72A97CDBFDEBF89879A87DC011496F1
S11304D02D913D914D915C9117976D917D918D91E9
S11304E09C910E9412086B017C01E985FA852089A0
S11304F03189428953890E946A096D837E838F837F
S113050098870E940F040E94B308A70196010E94D5
S11305106A09A985BA8518962D913D914D915C91F2
S11305201B970E9413084B015C01E985FA856087DB
S113053071878287938740900A4050900B40609067
S11305400C4070900D40A30192010E946509181699
S11305504CF4A985BA8518964D925D926D927C9261
S11305601B9719C0D301C201B05889839A83AB8306
S1130570BC839C01AD01C501B4010E947F0887FFC3
S11305800AC089819A81AB81BC81E985FA8580871B
S11305909187A287B387A985BA8518962D913D9135
S11305A04D915C911B9754966D917D918D919C9189
S11305B057970E946A094B015C01E985FA852485F5
S11305C0358546855785C701B6010E941208A9855D
S11305D0BA8558962D913D914D915C915B970E94FF
S11305E06A0969837A838B839C83E985FA85C48647
S11305F0D586E686F786A50194016D817E818F817B
S113060098850E94130829813A814B815C810E945C
S113061013087B018D8399839B01AC01C301B20153
S11306200E947F0887FD0FC020E030E0A901B701D8
S11306308D8199810E947F0887FF08C0E12CF12CED
S11306401D82198203C072016D827982B7018D8186
S113065099812A96CDBFDEBFDF91CF91FF90EF90B5
S1130660DF90CF90BF90AF909F908F907F906F90CE
S11306705F904F9008951F920F920FB60F9211241E
S11306800BB60F922F933F934F935F936F937F9388
S11306908F939F93AF93BF93EF93FF9390914409EC
S11306A080E88093430980917440E0917140F09117
S11306B07240823009F090839F012F5F3F4F209357
S11306C0714030937240813011F0918101C090E00B
S11306D080917340815080937340882319F09093E4
S11306E044090AC083E080937040E0917540F09122
S11306F07640309709F00995FF91EF91BF91AF9142
S11307009F918F917F916F915F914F913F912F9125
S11307100F900BBE0F900FBE0F901F901895E0E046
S1130720FBE0128613868FE08083118281E090E0E3
S1130730848795878583E0E0F2E09DE4908B87AF22
S113074008951F920F920FB60F9211240BB60F92B9
S11307502F933F934F935F936F937F938F939F93C5
S1130760AF93BF93EF93FF930E94A70560937D40DF
S113077070937E4080937F40909380400E94DE057A
S113078081E0809378408093060BFF91EF91BF91B5
S1130790AF919F918F917F916F915F914F913F9115
S11307A02F910F900BBE0F900FBE0F901F901895B6
S11307B01F920F920FB60F9211240BB60F922F9324
S11307C03F934F935F936F937F938F939F93AF93D5
S11307D0BF93EF93FF930E94A705609379407093B2
S11307E07A4080937B4090937C400E94DE0581E0B8
S11307F0809377408093160BFF91EF91BF91AF9157
S11308009F918F917F916F915F914F913F912F9124
S11308100F900BBE0F900FBE0F901F901895609114
S11308207D4070917E4080917F40909180400895FA
S1130830CF93DF93CDB7DEB76C97CDBFDEBF0E94F9
S113084009024FE069E170E480E00E94D0068DE384
S11308508F938CE48F938CEC8F938DEC8F938DEC32
S1130860882E8CEC982EA92C8DE3B82E9AE9C92EEB
S113087099E9D92EED2C9FE3F92E00E010E09801C0
S113088040E050E06AEF74E4CE0101960E941D023C
S1130890789482E090E080931E4190931F410F90E2
S11308A00F900F900F9006E811E00E9423010E9420
S11308B00F046093814070938240809383409093AF
S11308C08440209178402130B9F4209112402130A5
S11308D099F40E940502109278406D837E838F8381
S11308E09887CE0101960E9451020E948408C80193
S11308F0861B970B0E947A058091814090918240DB
S1130900A0918340B091844080930E4090930F4017
S1130910A0931040B093114080912041E0901E417B
S1130920F0901F41823069F5B70180E090E00E94A9
S1130930B3086D837E838F83988760912141709182
S1130940224180E090E00E94B308698B7A8B8B8B04
S11309509C8B609123417091244180E090E00E943F
S1130960B3086D8B7E8B8F8B988F6091254170912E
S1130970264180E090E00E94B308698F7A8F8B8FC4
S11309809C8FEF2851F089E290E40E94B306809195
S11309901E4190911F410E94F10681E490E40E945F
S11309A0960681E490E40E94B3067FCF1F920F92D3
S11309B00FB60F9211240BB60F928F939F93EF9360
S11309C0FF9380912741909128410196809327417C
S11309D090932841E0E2F4E088E087838185886091
S11309E08187FF91EF919F918F910F900BBE0F9094
S11309F00FBE0F901F9018951F920F920FB60F9273
S1130A0011240BB60F922F933F934F935F936F93E1
S1130A107F938F939F93AF93BF93EF93FF934FE095
S1130A2069E470E480E00E94D00688E080932704A3
S1130A308091690485FF05C081E080936F4080E266
S1130A4019C08091690486FF0DC081E080936D40D8
S1130A5080E48093690441E169E570E480E00E94E8
S1130A60D0060AC08091690487FF06C081E08093A4
S1130A706E4080E880936904FF91EF91BF91AF913C
S1130A809F918F917F916F915F914F913F912F91A2
S1130A900F900BBE0F900FBE0F901F901895E0E4BF
S1130AA0FAE088E08083118281858E7F818787EADE
S1130AB091E686A397A381E0828780818160808309
S1130AC00895E0E0F4E08181846081831092E6057A
S1130AD0E0E0FAE081818360818380E991E086A38C
S1130AE097A388EC90E084A795A710828081816009
S1130AF08083089580932C0A90932D0A08951F9261
S1130B000F920FB60F9211248F939F93AF93BF93BD
S1130B1080918D4090918E40A0918F40B0919040F3
S1130B200196A11DB11D80938D4090938E40A0939A
S1130B308F40B093904081E080934B0ABF91AF9176
S1130B409F918F910F900FBE0F901F901895E09179
S1130B50600AF091610A20918D4030918E4040915D
S1130B608F4050919040A8EAB1E60E94D709DC0179
S1130B70CB018E0F9F1FA11DB11D813221EA920767
S1130B8027E0A207B10548F48093894090938A40F6
S1130B90A0938B40B0938C4008C01092894010926F
S1130BA08A4010928B4010928C40609189407091E1
S1130BB08A4080918B4090918C4008951092600AF5
S1130BC01092610A10928D4010928E4010928F40C4
S1130BD0109290400895E0E6F8E080818081808161
S1130BE0E0E0F8E086E191E0808791878681826C7D
S1130BF08683A0E0B4E08C9180618C931D968C91E7
S1130C001D9780621D968C9385818068858388E01A
S1130C10878383E08783E0EEF5E0828181608283CD
S1130C200895E0E6F8E086E191E080879187868187
S1130C30826C8683A0E2B4E08C9181608C931D96D3
S1130C408C911D9782601D968C9385818068858325
S1130C5088E0878383E087830895E0919240F0E001
S1130C60EC5CFE4B8083809192408F5F8093924036
S1130C70209192408091134090E0019630E0281733
S1130C80390711F4109292402091040825FF15C0F1
S1130C90E0919140F0E0EC5CFE4B2081209302084F
S1130CA0209191402F5F209391402091914030E01A
S1130CB08217930711F41092914080E68A95F1F718
S1130CC00895E0919640F0E0EA59FE4B80838091CC
S1130CD096408F5F80939640209196408091144077
S1130CE090E0019630E02817390711F410929640ED
S1130CF02091640825FF15C0E0919540F0E0EA5981
S1130D00FE4B208120936208209195402F5F209311
S1130D1095402091954030E08217930711F410928A
S1130D2095408AE68A95F1F700C008951F93CF9302
S1130D30DF93EC0110E0812F90E0FE010190002090
S1130D40E9F73197EC1BFD0B8E179F0740F4FE016A
S1130D50E80FF91F80810E942D061F5FECCFDF9101
S1130D60CF911F9108951F93CF93DF93EC0110E06F
S1130D70812F90E0FE0101900020E9F73197EC1BF0
S1130D80FD0B8E179F0740F4FE01E80FF91F8081C9
S1130D900E9461061F5FECCFDF91CF911F910895F0
S1130DA0EF92FF921F93CF93DF93182FEB017B01F8
S1130DB0E40EF11CCE15DF0521F089910E94610635
S1130DC0F9CF112341F08AE0DF91CF911F91FF9079
S1130DD0EF900C946106DF91CF911F91FF90EF90FB
S1130DE008950F931F93CF93DF93CDB7DEB72A9760
S1130DF0CDBFDEBF4AE08E010F5F1F4FB8010E94D6
S1130E00160AF80101900020E9F73197AF01401B61
S1130E10510BB80180E00E94D0062A96CDBFDEBFF8
S1130E20DF91CF911F910F910895909194408091FB
S1130E309340981761F1E0919340F0E0E856FE4B3F
S1130E408081909193409F5F9093934090919340C1
S1130E50933311F4109293408C3341F410920D416A
S1130E6060E470E489E990E40C940F0A8E3321F471
S1130E7081E0809398400895E0910D41F0E0E756B9
S1130E80FF4B808380910D418F5F80930D410895C6
S1130E901F920F920FB60F9211240BB60F928F93DD
S1130EA0EF93FF9380910008E0919440F0E0E856BE
S1130EB0FE4B8083809194408F5F80939440809117
S1130EC09440833311F410929440FF91EF918F91E9
S1130ED00F900BBE0F900FBE0F901F9018951F928E
S1130EE00F920FB60F9211240BB60F928F93EF93BC
S1130EF0FF9380916008E0919740F0E0E653FE4B49
S1130F008083809197408F5F809397408091974032
S1130F10833311F410929740FF91EF918F910F90CA
S1130F200BBE0F900FBE0F901F9018951F920F923B
S1130F300FB60F9211240BB60F922F933F938F93FA
S1130F409F93EF93FF9390919140809192409817D3
S1130F50C9F0E0919140F0E0EC5CFE4B808180931D
S1130F606208809191408F5F8093914020919140DD
S1130F7030E08091134090E001962817390711F46E
S1130F801092914080910408806480930408FF913A
S1130F90EF919F918F913F912F910F900BBE0F90E6
S1130FA00FBE0F901F9018951F920F920FB60F92BD
S1130FB011240BB60F922F933F938F939F93EF932C
S1130FC0FF9390919540809196409817C9F0E091D5
S1130FD09540F0E0EA59FE4B80818093620880914D
S1130FE095408F5F809395402091954030E08091AB
S1130FF0144090E001962817390711F41092954097
S113100080916408806480936408FF91EF919F91BC
S11310108F913F912F910F900BBE0F900FBE0F90A9
S11310201F9018955058BB27AA270E942A080C9491
S11310302B090E941D0938F00E94240920F039F47C
S11310409F3F19F426F40C941A090EF4E095E7FB7B
S11310500C941409E92F0E943C0958F3BA1762074B
S113106073078407950720F079F4A6F50C945E09BC
S11310700EF4E0950B2EBA2FA02D0B01B9019001AF
S11310800C01CA01A0011124FF27591B99F0593FF3
S113109050F4503E68F11A16F040A22F232F342F3B
S11310A04427585FF3CF469537952795A795F04089
S11310B05395C9F77EF41F16BA0B620B730B840B9E
S11310C0BAF09150A1F0FF0FBB1F661F771F881F56
S11310D0C2F70EC0BA0F621F731F841F48F48795AE
S11310E077956795B795F7959E3F08F0B0CF9395A0
S11310F0880F08F09927EE0F9795879508950E9419
S1131100F00808F481E008950E94440988F09F578C
S113111098F0B92F9927B751B0F0E1F0660F771F17
S1131120881F991F1AF0BA95C9F714C0B13091F00D
S11311300E945E09B1E008950C945E09672F782F30
S11311408827B85F39F0B93FCCF3869577956795D2
S1131150B395D9F73EF490958095709561957F4F3E
S11311608F4F9F4F0895E89409C097FB3EF49095E4
S11311708095709561957F4F8F4F9F4F9923A9F06C
S1131180F92F96E9BB279395F695879577956795FB
S1131190B795F111F8CFFAF4BB0F11F460FF1BC03F
S11311A06F5F7F4F8F4F9F4F16C0882311F096E9D2
S11311B011C0772321F09EE8872F762F05C0662380
S11311C071F096E8862F70E060E02AF09A95660F39
S11311D0771F881FDAF7880F9695879597F90895F2
S11311E0990F0008550FAA0BE0E8FEEF1616170634
S11311F0E807F907C0F012161306E407F50798F09C
S1131200621B730B840B950B39F40A2661F0232BB4
S1131210242B252B21F408950A2609F4A140A69530
S11312208FEF811D811D089597F99F6780E870E015
S113123060E008959FEF80EC089500240A94161648
S1131240170618060906089500240A9412161306B0
S1131250140605060895092E0394000C11F488233E
S113126052F0BB0F40F4BF2B11F460FF04C06F5F5A
S11312707F4F8F4F9F4F089557FD9058440F551F30
S113128059F05F3F71F04795880F97FB991F61F004
S11312909F3F79F087950895121613061406551F7B
S11312A0F2CF4695F1DF08C0161617061806991FE7
S11312B0F1CF86957105610508940895E894BB27DC
S11312C066277727CB0197F908950E94F00808F460
S11312D08FEF08950E947D090C942B090E941D092B
S11312E038F00E94240920F0952311F00C9414097D
S11312F00C941A0911240C945F090E943C0970F3A0
S1131300959FC1F3950F50E0551F629FF001729FA6
S1131310BB27F00DB11D639FAA27F00DB11DAA1FB5
S1131320649F6627B00DA11D661F829F2227B00D02
S1131330A11D621F739FB00DA11D621F839FA00D8D
S1131340611D221F749F3327A00D611D231F849FDD
S1131350600D211D822F762F6A2F11249F57504034
S11313609AF0F1F088234AF0EE0FFF1FBB1F661FAF
S1131370771F881F91505040A9F79E3F510580F078
S11313800C9414090C945F095F3FE4F3983ED4F382
S1131390869577956795B795F795E7959F5FC1F71C
S11313A0FE2B880F911D9695879597F908950E94B5
S11313B0E209A59F900DB49F900DA49F800D911DEF
S11313C011240895A29FB001B39FC001A39F700D83
S11313D0811D1124911DB29F700D811D1124911D39
S11313E00895FC0188279927E89421912032E9F394
S11313F0293010F02E30C8F32B3241F02D3239F45D
S1131400689404C00E94210A820F911D21912053E7
S11314102A30C0F31EF4909581959F4F0895FB01E7
S1131420DC0101900D920020E1F70895BB274A30BA
S113143031F4992322F4BDE2909581959F4F0C9449
S11314402A0A7AE0979F902D879F802D910D112471
S11314500895BB27FB015527AA27880F991FAA1FA8
S1131460A41710F0A41B83955051B9F7A05DAA33BB
S113147008F0A95DA193009779F7B111B193119286
S1131480CB010C94430ADC01FC01672F7191772393
S1131490E1F7329704C07C916D9370836291AE172B
S11314A0BF07C8F30895DC0128ED209334006C9342
S10914B00895F894FFCF3B
S11314B6881388138813881388130000BE43FFFF1C
S11314C6FFFF01323225357500416C6C2073797348
S11314D674656D7320676F0A0041646A757374736B
S11314E66574706F696E206973206E6F7420300A9C
S11314F60074657374696E6700427574746F6E2048
S1131506707265737365640A00427574746F6E2035
S10F15163620707265737365640A00006F
S9030000FC
