:100000000C947A000C9499000C9499000C9499002B
:100010000C9499000C9499000C9499000C949900FC
:100020000C9499000C9499000C9499000C949900EC
:100030000C9499000C9499000C943C0A0C94930A2B
:100040000C9499000C9499000C9499000C949900CC
:100050000C9499000C94830E0C9499000C94D10E7E
:100060000C9499000C9499000C9499000C949900AC
:100070000C9499000C9499000C9499000C9499009C
:100080000C9499000C9499000C9499000C9499008C
:100090000C9499000C9499000C9499000C9499007C
:1000A0000C9499000C9499000C9499000C9499006C
:1000B0000C9499000C9499000C9499000C94A10C48
:1000C0000C9499000C9499000C9499000C9499004C
:1000D0000C9499000C94AA0E0C9499000C94150F92
:1000E0000C9499000C9499000C9499000C9499002C
:1000F0000C94990011241FBECFEFCDBFDFE7DEBF08
:1001000010E4A0E0B0E4E6E2FAE200E00BBF02C0D7
:1001100007900D92AC34B107D9F722E4ACE4B0E417
:1001200001C01D92A037B207E1F70E94FC0A0C94AF
:1001300011150C940000E0E0F6E082858160828772
:100140000895E0E0F6E082858260828708958091DC
:100150000D0680FFFCCF8091100690911106089546
:100160000F931F93CF93082F10E020910040309100
:1001700001400217130721F10E94A10000930040E3
:1001800010930140011103C01092080617C00130FE
:1001900021F481E08093080611C0023021F482E04E
:1001A000809308060BC0033021F483E08093080697
:1001B00005C0043019F484E0809308060E949B0077
:1001C000CF911F910F910895E0EBF0E08081836063
:1001D0008083E0E0F6E08281828380818160808399
:1001E0008081808380818260808380E00E94B00073
:1001F0000895282F2295220F220F207CE0EAF6E0B6
:10020000228396958795969587958383089581E4B3
:100210008093A006089583E88093B2000E940701AE
:1002200087EC90E00197F1F700C0000008956CE1C1
:1002300088E690E00E940B150895CF92DF92EF922E
:10024000FF920F931F93CF93DF93CDB7DEB728971D
:10025000CDBFDEBF0E94C90C00915740109158409D
:100260002091594030915A406B017C01C01AD10A4B
:10027000E20AF30A40E9C41640EDD40643E0E4067E
:10028000F10408F41FC16093574070935840809365
:10029000594090935A4020910440309105408091FC
:1002A0003841909139412817390751F180913841EF
:1002B000909139418093044090930540809138415A
:1002C000909139419F938F938EE090E49F938F9309
:1002D0008E010F5F1F4F1F930F930E941E1283E129
:1002E00090E40E94950DC8010E94950D86E190E46E
:1002F0000E94950D0F900F900F900F900F900F9000
:1003000020917D4030917E4080917B4090917C4057
:100310002817390751F180917D4090917E4080935C
:100320007B4090937C4080917D4090917E409F9354
:100330008F938EE090E49F938F938E010F5F1F4FFA
:100340001F930F930E941E1288E190E40E94950D66
:10035000C8010E94950D86E190E40E94950D0F90D2
:100360000F900F900F900F900F9020916F40309151
:10037000704080916D4090916E402817390751F17F
:1003800080916F409091704080936D4090936E404B
:1003900080916F40909170409F938F938EE090E496
:1003A0009F938F938E010F5F1F4F1F930F930E9498
:1003B0001E128BE190E40E94950DC8010E94950DDC
:1003C00086E190E40E94950D0F900F900F900F9092
:1003D0000F900F902091654030916640809163406E
:1003E000909164402817390751F1809165409091B0
:1003F0006640809363409093644080916540909103
:1004000066409F938F938EE190E49F938F938E012C
:100410000F5F1F4F1F930F930E941E1283E290E401
:100420000E94950DC8010E94950D86E190E40E94FE
:10043000950D0F900F900F900F900F900F9080914F
:100440004F408130E9F48CE30E942D0D81E40E943D
:100450002D0D8091514090E00E940B0E8091024042
:1004600090E00E940B0E8091504090E00E940B0E95
:1004700080914C4090E00E940B0E8EE30E942D0D67
:1004800080916140909162409F938F938EE190E4C0
:100490009F938F938E010F5F1F4F1F930F930E94A7
:1004A0001E1286E290E40E94950DC8010E94950DEF
:1004B00086E190E40E94950D0F900F900F900F90A1
:1004C0000F900F902896CDBFDEBFDF91CF911F9187
:1004D0000F91FF90EF90DF90CF9008950F931F93AF
:1004E000CF93DF93CDB7DEB72897CDBFDEBF809126
:1004F0000340813031F51092034080913841909152
:1005000039419F938F938EE090E49F938F938E0158
:100510000F5F1F4F1F930F930E941E1283E190E401
:100520000E94B20DC8010E94B20D8EE30E94610DBF
:100530008AE00E94610D0F900F900F900F900F9026
:100540000F902896CDBFDEBFDF91CF911F910F9105
:100550000895EF92FF920F931F93CF93DF93CDB740
:10056000DEB72897CDBFDEBF80917740909178406D
:100570008093754090937640809177409091784039
:100580009F938F930EE010E41F930F93AE014F5F84
:100590005F4F7A015F934F930E941E1289E290E4AD
:1005A0000E94B20D80916F40909170400E942F0E7A
:1005B0008EE30E94610D809173409091744080930E
:1005C00071409093724080917340909174409F93DA
:1005D0008F931F930F93FF92EF920E941E128CE253
:1005E00090E40E94B20D80917340909174400E94FB
:1005F0002F0E8EE30E94610D20917D4030917E4050
:100600008091794090917A40CDBFDEBF281739079D
:1006100041F180917D4090917E408093794090930C
:100620007A4080917D4090917E409F938F93C80146
:100630009F930F93FF92EF920E941E1288E190E425
:100640000E94B20D80917D4090917E400E942F0EBD
:100650008EE30E94610D0F900F900F900F900F90FE
:100660000F9020916B4030916C4080916940909147
:100670006A402817390759F180916B4090916C407E
:100680008093694090936A4080916B4090916C4058
:100690009F938F938EE090E49F938F93CE0101966A
:1006A0009F938F930E941E128FE290E40E94B20DDE
:1006B00080916B4090916C400E942F0E8EE30E94BF
:1006C000610D0F900F900F900F900F900F90209151
:1006D00067403091684080913441909135412817AE
:1006E000390759F180916740909168408093344177
:1006F0009093354180916740909168409F938F938C
:100700008EE090E49F938F93CE0101969F938F93F9
:100710000E941E1288E190E40E94B20D8091674011
:10072000909168400E942F0E8EE30E94610D0F9001
:100730000F900F900F900F900F902896CDBFDEBFB7
:10074000DF91CF911F910F91FF90EF9008954F92FD
:100750005F926F927F92AF92BF92CF92DF92EF92B1
:10076000FF920F931F93CF93DF93CDB7DEB76097C0
:10077000CDBFDEBF2B013C0129873A874B875C87C1
:10078000ED86FE860F87188B6DA17EA18FA198A59F
:100790000E943D107F936F930F2EFEE0EF2EF0E44A
:1007A000FF2EF02DFF92EF928E010F5F1F4F1F93D0
:1007B0000F930E941E1282E390E40E94B20DC801C2
:1007C0000E94B20D8EE30E94610D198269857A85BF
:1007D0008B859C850E943D107F936F93FF92EF92D3
:1007E0001F930F930E941E1285E390E40E94B20DA6
:1007F000C8010E94B20D8EE30E94610D1982C301EF
:10080000B2010E943D107F936F93FF92EF921F936E
:100810000F930E941E1288E390E40E94B20DC8015B
:100820000E94B20D8EE30E94610D19826D857E8556
:100830008F8598890E9444107F936F93FF92EF9267
:100840001F930F930E941E128BE390E40E94B20D3F
:10085000C8010E94B20D8EE30E94610D1982C6018B
:10086000B5010E9444107F936F93FF92EF921F9304
:100870000F930E941E128EE390E40E94B20DC801F5
:100880000E94B20D8EE30E94610D198269A17AA1C6
:100890008BA19CA10E9444107F936F93FF92EF92D3
:1008A0001F930F930E941E12CDBFDEBF81E490E420
:1008B0000E94B20DC8010E94B20D8EE30E94610D2C
:1008C00019828AE00E94610D6096CDBFDEBFDF9184
:1008D000CF911F910F91FF90EF90DF90CF90BF903D
:1008E000AF907F906F905F904F9008958436910500
:1008F00010F084E690E0880F991F880F991F2091CF
:100900000740213049F420E931E0A901481B590B87
:10091000CA010E948E0C089520910740211102C047
:100920000E948E0C089580910640811129C010927A
:100930000640E0E8F4E0808181608083A0E0B4E0DC
:1009400014968C911497846014968C9384818160A2
:10095000848384E08093E60587EC90E00197F1F7CB
:1009600000C00000E0E0FAE0818180618183808145
:100970008160808380916140909162400E94760402
:10098000089580910640813009F51092064085E077
:1009900080930104E0E8F4E0848114828081108275
:1009A0001092E60587EC90E00197F1F700C0000097
:1009B000E0E0FAE0818180648183808181608083CE
:1009C00080916140909162400E94760408950F9357
:1009D0001F93CF93DF93CDB7DEB72A97CDBFDEBF8E
:1009E0000E94530E8091A540813009F038C180915A
:1009F000E740843439F5E7EEF0E481818983828130
:100A00008A8383818B83CE0101960E94D3118093C8
:100A10006140909362408091614090916240843641
:100A2000910530F084E690E08093614090936240BD
:100A300081E0809351401092504010924E401092AD
:100A40004D4009C1873409F03FC0E7EEF0E48181F1
:100A50008F838281888783818987CE0107960E9450
:100A6000D31180936540909366408091654090914A
:100A700066408436910530F084E690E080936540CE
:100A80009093664080916540909166409F938F93CC
:100A90008EE190E49F938F938E010F5F1F4F1F9302
:100AA0000F930E941E1283E290E40E94950DC801EC
:100AB0000E94950D8EE30E942D0D0F900F900F90C8
:100AC0000F900F900F90C7C08134A1F48091E8403F
:100AD000803319F410925040BEC0813309F0BBC07E
:100AE00081E0809350401092514010924E401092FD
:100AF0004D40B1C0813671F48091E840803319F4E3
:100B000010924C40A8C0813309F0A5C081E08093C9
:100B10004C40A1C08535A1F48091E840803319F4A0
:100B20001092024098C0813309F095C081E0809313
:100B300050401092514010924E4010924D408BC048
:100B4000833591F48091E840803329F41092074076
:100B50000E94C10480C0813309F07DC081E0809390
:100B600007400E94930477C08235B1F48091E84039
:100B7000803329F410924D4010924E406CC0813366
:100B800009F069C081E080934D401092504010926E
:100B9000514080934D405FC08937B1F4E7EEF0E4F7
:100BA0008181898382818A8383818B8384818C8301
:100BB000CE0101960E94D31180932C4190932D4138
:100BC00081E080937F4047C08037B1F4E7EEF0E4E6
:100BD0008181898382818A8383818B8384818C83D1
:100BE000CE0101960E94D31180933A4190933B41EC
:100BF00081E080937F402FC08936B1F4E7EEF0E4C6
:100C00008181898382818A8383818B8384818C83A0
:100C1000CE0101960E94D31180933C4190933D41B7
:100C200081E080937F4017C08436A9F4E7EEF0E4BA
:100C30008181898382818A8383818B8384818C8370
:100C4000CE0101960E94D31180933E4190933F4183
:100C500081E080937F401092E7401092A5402A9651
:100C6000CDBFDEBFDF91CF911F910F91089580918D
:100C70008040811112C080910740813029F40E9488
:100C8000C1040E94930406C080910740811102C0F4
:100C90000E94C10481E08093804008956115710530
:100CA0008105910579F00E9473109B01AC0160E011
:100CB00074E284E799E40E94CB0F9B01AC010E948F
:100CC0005A0F03C060E070E0CB010E944410CB01DA
:100CD00008950F931F9380918240813009F0E5C001
:100CE00080918140813009F0E0C00E94EA0A0E94B0
:100CF0004E0680935D4090935E400E94F30A0E94EE
:100D00004E0680935B4090935C4020915D40309113
:100D10005E4080915B4090915C40820F931F96955E
:100D20008795809338419093394110928240109278
:100D3000814000915D4010915E4080915B409091B8
:100D40005C40081B190B80915D4090915E40892B9F
:100D5000D9F480915B4090915C40892BA9F08091FF
:100D60005B4090915C40813A9F4048F480915B40A9
:100D700090915C40809338419093394140C01092EB
:100D80003841109239413BC080915D4090915E4066
:100D9000892BD9F080915B4090915C40892BA9F41C
:100DA00080915D4090915E40813A9F4048F48091EF
:100DB0005D4090915E4080933841909339411FC0CF
:100DC00010923841109239411AC080913841909167
:100DD0003941803A9F4098F08091044090910540BD
:100DE000809338419093394180910440909105401F
:100DF000803A9F4020F0109238411092394181E0B2
:100E000080935240809303400E94C90C60935340EA
:100E10007093544080935540909356408091384150
:100E2000909139418436910500F18091384190913B
:100E3000394185319540C8F4083C11054CF080914A
:100E40005B4090915C40809338419093394155C00C
:100E500009331F4F0CF051C080915D4090915E406E
:100E6000809338419093394148C0809138419091A6
:100E700039418431954008F440C0083C11054CF0DC
:100E800080915D4090915E408093384190933941CC
:100E900034C009331F4F8CF580915B4090915C40CA
:100EA000809338419093394128C00E94C90C009129
:100EB0005340109154402091554030915640DC01F0
:100EC000CB01801B910BA20BB30B803A9648A1403B
:100ED000B10598F0109238411092394181E0809329
:100EE0005240809303400E94C90C6093534070931A
:100EF000544080935540909356401F910F91089510
:100F0000CF93DF9382E00E94B0008FE891E00197D9
:100F1000F1F700C000000E94A700EC010E94A700AA
:100F2000C80FD91F0E94A7009E01280F391FABEAE6
:100F3000BAEA0E94B9119695879580932E419093B5
:100F40002F41DF91CF9108956091384170913941DF
:100F500080E090E00E94731020E030EC4FE754E412
:100F60000E942A1120E030E04AE755E40E94CB0FAE
:100F70000E944410CB010E94F9000895DC0120EA90
:100F800036E841E050E00E94C81128E13CE740E02B
:100F900050E00E949711C9010E9476040895BC0197
:100FA00080E090E00E9473102CEF39EA41E550E4B4
:100FB0000E94CB0F0E944410CB0108950F931F9302
:100FC000CF93DF938091614090916240892B09F427
:100FD00072C081E00E94B00080910740813049F5E5
:100FE00084E690E00E94760487EC90E00197F1F7A8
:100FF00000C000000E94A7000E94CF0780937340AA
:1010000090937440C0E0D4E08E8184608E83EFE8DA
:10101000F1E03197F1F700C000000E94A7000E94A4
:10102000CF0780936F40909370408D8184608D8353
:101030003AC080910740811136C084E690E00E945A
:10104000760487EC90E00197F1F700C000000E9461
:10105000A7000E94CF07809373409093744080E074
:1010600090E00E94760400E014E0F8018281846040
:101070008283C0E8D4E08A8181608A838FEA94E029
:101080000197F1F700C000000E94A7000E94CF075F
:1010900080936F4090937040F801818184608183D8
:1010A0008981816089830E94370680916140909197
:1010B00062400E947604DF91CF911F910F910895B5
:1010C0000E9417010E94E40083ED90E30197F1F77D
:1010D00000C000000E940B010E946E0C0E945C0C7C
:1010E0000E94170A0E94290A0E94F00C0E94110D0A
:1010F0000E94800708958F929F92AF92BF92CF92E5
:10110000DF92EF92FF920F931F93CF93DF93CDB7B0
:10111000DEB7FC01408351836283738304831583AC
:1011200026833783C08ED18EE28EF38E848E958E89
:10113000A68EB78E8F859889A989BA8980A391A335
:10114000A2A3B3A314A215A216A217A2DF91CF9156
:101150001F910F91FF90EF90DF90CF90BF90AF90D5
:101160009F908F9008954F925F926F927F928F928F
:101170009F92AF92BF92CF92DF92EF92FF92CF9366
:10118000DF93CDB7DEB72E97CDBFDEBF8D879E87AD
:10119000DC016D917D918D919C91139714968D90AA
:1011A0009D90AD90BC901797A50194010E94590F96
:1011B0006B017C01ED85FE85648B758B868B978B2F
:1011C00020E030E04AE755E40E94251188235CF0D6
:1011D000ED85FE8580899189A289B389848B958B61
:1011E000A68BB78B14C020E030E04AE755ECC7016E
:1011F000B6010E94C60F181654F0ED85FE85808951
:101200009189A289B389848B958BA68BB78B20E0BB
:1012100030E040E752E4C501B4010E94CB0F20E06A
:1012200030E040E752E40E94CB0F69837A838B83DE
:101230009C8320E030E0A9010E94C60F811108C004
:1012400080E090E0A0E8BFE389839A83AB83BC830E
:10125000AD85BE8558966D917D918D919C915B97E2
:101260005496CD90DD90ED90FC905797A701960194
:101270000E942A116D837E838F839887A701960130
:1012800069817A818B819C810E942A11ED85FE857E
:1012900024853585468557850E945A0F2B013C01D0
:1012A000AD85BE851C966D937D938D939C931F9702
:1012B000209108403091094040910A4050910B40E4
:1012C0000E94251188237CF080910840909109406C
:1012D000A0910A40B0910B40ED85FE8584879587EB
:1012E000A687B78720C08091084090910940A091BF
:1012F0000A40B0910B409C01AD015058C301B201AE
:101300000E94C60F18167CF0809108409091094009
:10131000A0910A40B0910B40B058ED85FE858487BE
:101320009587A687B787AD85BE855C966D917D91C3
:101330008D919C915F971C962D913D914D915C9163
:101340001F970E942A1169877A878B879C87ED8572
:10135000FE8540A051A062A073A0208931894289F6
:101360005389C701B6010E94590F29813A814B81E7
:101370005C810E94CB0F9B01AC01C301B2010E94B2
:101380002A112B013C01AD85BE855096CD92DD9290
:10139000ED92FC92539729853A854B855C856D814A
:1013A0007E818F8198850E945A0F9B01AC01C301F9
:1013B000B2010E945A0F6B017C0120E030E048EC42
:1013C00052E40E942511181654F020E030E0A901E3
:1013D000C701B6010E94C60F88236CF409C00F2E06
:1013E000C12CD12CF8ECEF2EF2E4FF2EF02D03C02F
:1013F000C12CD12C7601ED85FE8580869186A28652
:10140000B386C4A2D5A2E6A2F7A22E96CDBFDEBFB8
:10141000DF91CF91FF90EF90DF90CF90BF90AF9092
:101420009F908F907F906F905F904F900895E0E035
:10143000FBE0128613868FE48083118281E090E0C6
:10144000848795878583E0E0F2E09DE4908B87AF09
:101450000895E0E1FBE0128613868FE48083118219
:1014600081E090E08487958785838CE480931102E6
:1014700082E08093410208951F920F920FB60F925F
:1014800011240BB60F92CF92DF92EF92FF920F933F
:101490001F932F933F934F935F936F937F938F93FC
:1014A0009F93AF93BF93EF93FF930E94C90C00915A
:1014B0008740109188402091894030918A406B018B
:1014C0007C01C01AD10AE20AF30AC0928F40D0927E
:1014D0009040E0929140F0929240609387407093E8
:1014E00088408093894090938A4081E08093824035
:1014F0008093060BFF91EF91BF91AF919F918F91D8
:101500007F916F915F914F913F912F911F910F911B
:10151000FF90EF90DF90CF900F900BBE0F900FBE1B
:101520000F901F9018951F920F920FB60F921124D3
:101530000BB60F92CF92DF92EF92FF920F931F9311
:101540002F933F934F935F936F937F938F939F93CB
:10155000AF93BF93EF93FF930E94C90C0091834018
:101560001091844020918540309186406B017C0130
:10157000C01AD10AE20AF30AC0928B40D0928C4082
:10158000E0928D40F0928E4060938340709384404F
:10159000809385409093864081E080938140809342
:1015A000160BFF91EF91BF91AF919F918F917F911A
:1015B0006F915F914F913F912F911F910F91FF90EC
:1015C000EF90DF90CF900F900BBE0F900FBE0F905B
:1015D0001F90189560918F4070919040809191403C
:1015E00090919240089560918B4070918C408091D1
:1015F0008D4090918E400895CF93DF93CDB7DEB7A5
:10160000E497CDBFDEBF0E94600884E490E40E94AE
:10161000B20D1F921F921F921F920F2EFFE88F2E66
:10162000F2EC9F2EF5E7AF2EFCE3BF2EF02D0F2E30
:10163000F1E7CF2EFDE3DF2EFAE0EF2EFFE3FF2EE2
:10164000F02D00E010E0980140E050E06AEF74E413
:10165000CE0101960E947B0878940E9437062FEFF6
:1016600089E698E1215080409040E1F700C00000F9
:101670000F900F900F900F900E94E7040E94690650
:1016800080914E40811110C080914D4081110CC05D
:1016900080919540813009F0B8C01092954080E06B
:1016A00090E00E947604B1C080914E4020914D4060
:1016B00091E0813009F090E081E0213009F080E094
:1016C000892B09F4A2C080919540811108C08DEC4E
:1016D0009CECACECBDE38D879E87AF87B88B81E037
:1016E0008093954080915240813009F08EC0609186
:1016F00038417091394180E090E00E9473106D8311
:101700007E838F839887CE0101960E94B3086DA1D6
:101710007EA18FA198A50E944410CB010E9476045F
:10172000109252400E946E0280910240813021F559
:10173000ADA4BEA4CFA4D8A8E9A4FAA40BA51CA567
:101740002DA13EA14FA158A569817A818B819C81F1
:10175000E88DEF93EF89EF93EE89EF93ED89EF93A7
:10176000ECA9EF93EBA9EF93EAA9EF93E9A9EF9323
:101770000E94A703CDBFDEBF80917F40813009F07A
:1017800044C010927F4060912C4170912D4180E0C7
:1017900090E00E94731069837A838B839C836091AD
:1017A0003A4170913B4180E090E00E94731020E04C
:1017B00030E04AE754E40E94CB0F698F7A8F8B8F19
:1017C0009C8F60913C4170913D4180E090E00E948F
:1017D000731020E030E04AE754E40E94CB0F6D8F95
:1017E0007E8F8F8F98A360913E4170913F4180E042
:1017F00090E00E94731020E030E04AE754E40E9439
:10180000CB0F69A37AA38BA39CA380915140813015
:10181000C9F4209161403091624080915F40909185
:1018200060402817390771F08091614090916240C3
:1018300080935F40909360408091614090916240BE
:101840000E94760480915040813039F484E00E94F7
:10185000B0000E94A7000E94BE0780910240813024
:1018600011F5809152408130F1F4109252400E9463
:101870006E0280919340909194404E9759F410924B
:101880009340109294400E94DE070E94A9028AE0D1
:101890000E94610D809193409091944001968093B5
:1018A00093409093944080914C40813011F40E9479
:1018B000A4070E941D01E0CEE0E4FAE088E0808306
:1018C000118281858E7F81878FE097E286A397A31F
:1018D00081E082878081816080830895E0E0F4E088
:1018E000808184608083E0E8F4E08081816080838F
:1018F0001092E605E0E0FAE081818360818380E96F
:1019000091E086A397A388EC90E080A791A784A795
:1019100095A7108280818160808308959C019091B9
:101920000740911105C020932C0A30932D0A089589
:1019300080910740813021F42093280A3093290AAE
:1019400008951F920F920FB60F9211248F939F93B9
:10195000AF93BF9380919A4090919B40A0919C40FF
:10196000B0919D400196A11DB11D80939A40909326
:101970009B40A0939C40B0939D4081E080934B0A94
:10198000BF91AF919F918F910F900FBE0F901F90BD
:101990001895E091600AF091610A20919A40309187
:1019A0009B4040919C4050919D40A0E1B7E20E9435
:1019B000C811DC01CB018E0F9F1FA11DB11D8093AB
:1019C000964090939740A0939840B093994060912F
:1019D00096407091974080919840909199400895D9
:1019E000E0E0F8E086E191E0808791878681826C73
:1019F0008683A0E0B4E08C9180618C931D968C91DD
:101A00001D9780621D968C9385818068858388E010
:101A1000878383E08783E0EEF5E0828181608283C3
:101A20000895E0E6F8E086E191E08087918786817D
:101A3000826C8683A0E2B4E08C9181608C931D96C9
:101A40008C911D9782601D968C938581806885831B
:101A500088E0878383E087830895E0919F40F0E0EA
:101A6000EC5BFE4B808380919F408F5F80939F4013
:101A700020919F4030E080910C4090E00196281723
:101A8000390711F410929F402091040825FF15C0DA
:101A9000E0919E40F0E0EC5BFE4B20812093020839
:101AA00020919E402F5F20939E4020919E4030E0E9
:101AB0008217930711F410929E4080E68A95F1F701
:101AC0000895E091A240F0E0EA58FE4B80838091B7
:101AD000A2408F5F8093A2402091A24030E080918D
:101AE0000D4090E001962817390711F41092A2409A
:101AF0002091640825FF15C0E091A140F0E0EA586C
:101B0000FE4B2081209362082091A1402F5F2093FB
:101B1000A1402091A14030E08217930711F4109268
:101B2000A14080E68A95F1F708951F93CF93DF9344
:101B3000EC0110E007C0FE01E80FF91F80810E9450
:101B40002D0D1F5F812F90E0FE0101900020E9F72D
:101B50003197EC1BFD0B8E179F0768F3DF91CF9138
:101B60001F9108951F93CF93DF93EC0110E007C0FE
:101B7000FE01E80FF91F80810E94610D1F5F812F18
:101B800090E0FE0101900020E9F73197EC1BFD0B7E
:101B90008E179F0768F3DF91CF911F910895FF92F1
:101BA0000F931F93CF93DF93F82E8B01D42FC0E0B8
:101BB00007C0F801EC0FF11D80810E942D0DCF5F51
:101BC000CD17B8F3FF2019F08AE00E942D0DDF91A8
:101BD000CF911F910F91FF900895FF920F931F9344
:101BE000CF93DF93F82E8B01D42FC0E007C0F8010C
:101BF000EC0FF11D80810E94610DCF5FCD17B8F30E
:101C0000FF2019F08AE00E94610DDF91CF911F91B2
:101C10000F91FF9008950F931F93CF93DF93CDB74C
:101C2000DEB72A97CDBFDEBF4AE08E010F5F1F4FA0
:101C3000B8010E94F111F80101900020E9F73197F5
:101C4000AF01401B510BB80180E00E94CF0D2A96D6
:101C5000CDBFDEBFDF91CF911F910F9108950F93FC
:101C60001F93CF93DF93CDB7DEB72A97CDBFDEBFEB
:101C70004AE08E010F5F1F4FB8010E94F111F80179
:101C800001900020E9F73197AF01401B510BB801DB
:101C900080E00E94ED0D2A96CDBFDEBFDF91CF918F
:101CA0001F910F9108959091A4408091A34098179F
:101CB00049F1E091A340F0E0E652FE4B9081809123
:101CC000A3408F5F8093A3408091A340833311F49E
:101CD0001092A3409C3329F41092A6401092E74042
:101CE00008959E3321F481E08093A5400895E0910A
:101CF000A640F0E0E951FF4B90838091A6408F5FB2
:101D00008093A64008951F920F920FB60F92112450
:101D10000BB60F928F93EF93FF9380910008E091A1
:101D2000A040F0E0E855FE4B80838091A0408F5F9B
:101D30008093A0408091A040833311F41092A04082
:101D4000FF91EF918F910F900BBE0F900FBE0F90F0
:101D50001F9018951F920F920FB60F9211240BB679
:101D60000F928F93EF93FF9380916008E091A440CE
:101D7000F0E0E652FE4B80838091A4408F5F809319
:101D8000A4408091A440833311F41092A440FF91A9
:101D9000EF918F910F900BBE0F900FBE0F901F9081
:101DA00018951F920F920FB60F9211240BB60F9237
:101DB0002F933F938F939F93EF93FF9390919E4028
:101DC00080919F409817F9F0E0919E40F0E0EC5B25
:101DD000FE4B80818093620880919E408F5F80934C
:101DE0009E4020919E4030E080910C4090E0019612
:101DF0002817390711F410929E40E0E0F8E0848142
:101E00008064848305C0E0E0F8E08481806484839A
:101E1000FF91EF919F918F913F912F910F900BBE6A
:101E20000F900FBE0F901F9018951F920F920FB634
:101E30000F9211240BB60F922F933F938F939F9382
:101E4000EF93FF939091A1408091A2409817F9F0F1
:101E5000E091A140F0E0EA58FE4B80818093620857
:101E60008091A1408F5F8093A1402091A14030E0FC
:101E700080910D4090E001962817390711F41092D7
:101E8000A140E0E6F8E084818064848305C0E0E658
:101E9000F8E0848180648483FF91EF919F918F911A
:101EA0003F912F910F900BBE0F900FBE0F901F9080
:101EB00018955058BB27AA270E94710F0C94EB105D
:101EC0000E94DD1038F00E94E41020F039F49F3FAA
:101ED00019F426F40C94DA100EF4E095E7FB0C9458
:101EE000D410E92F0E94FC1058F3BA176207730749
:101EF0008407950720F079F4A6F50C941E110EF4D2
:101F0000E0950B2EBA2FA02D0B01B90190010C0109
:101F1000CA01A0011124FF27591B99F0593F50F421
:101F2000503E68F11A16F040A22F232F342F442779
:101F3000585FF3CF469537952795A795F040539571
:101F4000C9F77EF41F16BA0B620B730B840BBAF041
:101F50009150A1F0FF0FBB1F661F771F881FC2F7AC
:101F60000EC0BA0F621F731F841F48F487957795C0
:101F70006795B795F7959E3F08F0B0CF9395880F7A
:101F800008F09927EE0F9795879508950E94B01055
:101F900008F481E008950E94DF0F0C94EB100E947A
:101FA000E41058F00E94DD1040F029F45F3F29F062
:101FB0000C94D41051110C941F110C94DA100E943F
:101FC000FC1068F39923B1F3552391F3951B550B3E
:101FD000BB27AA2762177307840738F09F5F5F4FFC
:101FE000220F331F441FAA1FA9F335D00E2E3AF03B
:101FF000E0E832D091505040E695001CCAF72BD053
:10200000FE2F29D0660F771F881FBB1F26173707A3
:102010004807AB07B0E809F0BB0B802DBF01FF27D5
:1020200093585F4F3AF09E3F510578F00C94D410CE
:102030000C941F115F3FE4F3983ED4F38695779597
:102040006795B795F7959F5FC9F7880F911D96958E
:10205000879597F90895E1E0660F771F881FBB1FEA
:10206000621773078407BA0720F0621B730B840B97
:10207000BA0BEE1F88F7E09508950E94441068940B
:10208000B1110C941F1108950E94041188F09F57FC
:1020900098F0B92F9927B751B0F0E1F0660F771F8C
:1020A000881F991F1AF0BA95C9F714C0B13091F082
:1020B0000E941E11B1E008950C941E11672F782F15
:1020C0008827B85F39F0B93FCCF386957795679547
:1020D000B395D9F73EF490958095709561957F4FB3
:1020E0008F4F9F4F0895E89409C097FB3EF4909559
:1020F0008095709561957F4F8F4F9F4F9923A9F0E1
:10210000F92F96E9BB279395F6958795779567956F
:10211000B795F111F8CFFAF4BB0F11F460FF1BC0B3
:102120006F5F7F4F8F4F9F4F16C0882311F096E946
:1021300011C0772321F09EE8872F762F05C06623F4
:1021400071F096E8862F70E060E02AF09A95660FAD
:10215000771F881FDAF7880F9695879597F9089566
:10216000990F0008550FAA0BE0E8FEEF16161706A8
:10217000E807F907C0F012161306E407F50798F010
:10218000621B730B840B950B39F40A2661F0232B29
:10219000242B252B21F408950A2609F4A140A695A5
:1021A0008FEF811D811D089597F99F6780E870E08A
:1021B00060E008959FEF80EC089500240A941616BD
:1021C000170618060906089500240A941216130625
:1021D000140605060895092E0394000C11F48823B3
:1021E00052F0BB0F40F4BF2B11F460FF04C06F5FCF
:1021F0007F4F8F4F9F4F089557FD9058440F551FA5
:1022000059F05F3F71F04795880F97FB991F61F078
:102210009F3F79F087950895121613061406551FEF
:10222000F2CF4695F1DF08C0161617061806991F5B
:10223000F1CF86957105610508940895E894BB2750
:1022400066277727CB0197F908950E94B01008F40C
:102250008FEF08950E943D110C94EB100E94DD1049
:1022600038F00E94E41020F0952311F00C94D41063
:102270000C94DA1011240C941F110E94FC1070F3BE
:10228000959FC1F3950F50E0551F629FF001729F1B
:10229000BB27F00DB11D639FAA27F00DB11DAA1F2A
:1022A000649F6627B00DA11D661F829F2227B00D77
:1022B000A11D621F739FB00DA11D621F839FA00D02
:1022C000611D221F749F3327A00D611D231F849F52
:1022D000600D211D822F762F6A2F11249F575040A9
:1022E0009AF0F1F088234AF0EE0FFF1FBB1F661F24
:1022F000771F881F91505040A9F79E3F510580F0ED
:102300000C94D4100C941F115F3FE4F3983ED4F367
:10231000869577956795B795F795E7959F5FC1F790
:10232000FE2B880F911D9695879597F90895A1E248
:102330001A2EAA1BBB1BFD010DC0AA1FBB1FEE1F3F
:10234000FF1FA217B307E407F50720F0A21BB30B8A
:10235000E40BF50B661F771F881F991F1A9469F706
:1023600060957095809590959B01AC01BD01CF0162
:102370000895A29FB001B39FC001A39F700D811D5E
:102380001124911DB29F700D811D1124911D08957E
:102390000E94B911A59F900DB49F900DA49F800D30
:1023A000911D11240895FC0188279927E894219113
:1023B0002032E9F3293010F02E30C8F32B3241F0EF
:1023C0002D3239F4689404C00E94FC11820F911DD3
:1023D000219120532A30C0F31EF4909581959F4F90
:1023E0000895BB274A3031F4992322F4BDE2909539
:1023F00081959F4F0C9405127AE0979F902D879FAF
:10240000802D910D11240895BB27FB015527AA2784
:10241000880F991FAA1FA41710F0A41B8395505171
:10242000B9F7A05DAA3308F0A95DA193009779F7E9
:10243000B111B1931192CB010C9461140F931F93BE
:10244000CF93DF93CDB7DEB72E97CDBFDEBF0D891B
:102450001E8986E08C8309831A838FEF9FE78D8323
:102460009E83AE01475E5F4F6F89788DCE010196E6
:102470000E944712EF81F885E00FF11F10822E961F
:10248000CDBFDEBFDF91CF911F910F9108952F92A5
:102490003F924F925F926F927F928F929F92AF92F4
:1024A000BF92CF92DF92EF92FF920F931F93CF9341
:1024B000DF93CDB7DEB72B97CDBFDEBF6C017B01BD
:1024C0008A01FC0116821782838181FFCCC1CE0173
:1024D00001963C01F6019381F70193FD859193FFED
:1024E00081917F01882309F4BAC1853239F493FDC3
:1024F000859193FF81917F01853229F4B60190E0A7
:102500000E947114E7CF912C212C312CFFE1F3159F
:10251000D8F08B3279F038F4803279F08332A1F43C
:10252000232D20611DC08D3261F0803369F4232D8D
:10253000216016C0832D8260382EE32DE4603E2E8C
:102540002AC0F32DF8601DC037FC2DC020ED280FE8
:102550002A3040F08E32B9F436FC81C1232D20643C
:10256000322E19C036FE06C08AE0989E200D112436
:10257000922E11C0EAE02E9E200D1124222EF32D62
:10258000F0623F2E08C08C3621F4832D8068382EEF
:1025900002C0883641F4F70193FD859193FF819144
:1025A0007F018111B3CF982F9F7D9554933028F4EC
:1025B0000C5F1F4F9FE399830DC0833631F0833743
:1025C00071F0833509F059C021C0F80180818983F9
:1025D0000E5F1F4F88248394912C530113C0280150
:1025E000F2E04F0E511CF801A080B18036FE03C00E
:1025F000692D70E002C06FEF7FEFC5010E94561495
:102600004C018201F32DFF773F2E16C0280122E0F6
:10261000420E511CF801A080B18036FE03C0692D26
:1026200070E002C06FEF7FEFC5010E944B144C01B8
:10263000F32DF0683F2E820133FC1BC0822D90E009
:1026400088169906B0F4B60180E290E00E947114F9
:102650002A94F4CFF50137FC859137FE81915F0113
:10266000B60190E00E94711421102A9421E0821A90
:1026700091088114910471F7E8C0843611F089360D
:1026800041F5F80137FE07C0608171818281938135
:102690000C5F1F4F08C060817181072E000C880BF2
:1026A000990B0E5F1F4FF32DFF763F2E97FF09C04A
:1026B00090958095709561957F4F8F4F9F4FF068F3
:1026C0003F2E2AE030E0A3010E94AD14882E861828
:1026D00045C0853731F4232D2F7EB22E2AE030E01D
:1026E00025C0932D997FB92E8F36C1F018F4883507
:1026F00079F0B5C0803719F0883721F0B0C0E92FE4
:10270000E061BE2EB4FE0DC0FB2DF460BF2E09C0EB
:1027100034FE0AC0292F2660B22E06C028E030E021
:1027200005C020E130E002C020E132E0F801B7FE50
:1027300007C060817181828193810C5F1F4F06C049
:102740006081718180E090E00E5F1F4FA3010E94C5
:10275000AD14882E8618FB2DFF773F2E36FE0DC058
:10276000232D2E7FA22E891458F434FE0BC032FC88
:1027700009C0832D8E7EA82E05C0B82CA32C03C0C3
:10278000B82C01C0B92CA4FE0FC0FE01E80DF11D4C
:102790008081803321F49A2D997EA92E09C0A2FE52
:1027A00006C0B394B39404C08A2D867809F0B3941C
:1027B000A3FC11C0A0FE06C0B21488F4280C922C11
:1027C0009B180EC0B21460F4B60180E290E00E9443
:1027D0007114B394F7CFB21418F42B1802C0982CCC
:1027E000212CA4FE10C0B60180E390E00E94711479
:1027F000A2FE17C0A1FC03C088E790E002C088E5F4
:1028000090E0B6010CC08A2D867859F0A1FE02C076
:102810008BE201C080E2A7FC8DE2B60190E00E944D
:102820007114891438F4B60180E390E00E947114A9
:102830009A94F7CF8A94F301E80DF11D8081B601D7
:1028400090E00E9471148110F5CF222009F442CE4D
:10285000B60180E290E00E9471142A94F6CFF6014E
:102860008681978102C08FEF9FEF2B96CDBFDEBF91
:10287000DF91CF911F910F91FF90EF90DF90CF905C
:10288000BF90AF909F908F907F906F905F904F9090
:102890003F902F900895FC01059061507040011009
:1028A000D8F7809590958E0F9F1F0895FC01615079
:1028B000704001900110D8F7809590958E0F9F1F62
:1028C0000895DC01FC01672F71917723E1F73297BE
:1028D00004C07C916D9370836291AE17BF07C8F3FB
:1028E00008950F931F93CF93DF93FB01238121FD65
:1028F00003C08FEF9FEF2CC022FF16C04681578187
:10290000248135814217530744F4A081B1819D0190
:102910002F5F3F4F208331838C93268137812F5F38
:102920003F4F2683378314C08B01EC01FB010084E9
:10293000F185E02D0995892BE1F6D80116968D9148
:102940009C911797019616968D939C931797CE019D
:10295000DF91CF911F910F910895FA01AA27283096
:1029600051F1203181F1E8946F936E7F6E5F7F4F5C
:102970008F4F9F4FAF4FB1E03ED0B4E03CD0670FD8
:10298000781F891F9A1FA11D680F791F8A1F911D2B
:10299000A11D6A0F711D811D911DA11D20D009F47B
:1029A00068943F912AE0269F11243019305D3193BD
:1029B000DEF6CF010895462F4770405D4193B3E0A6
:1029C0000FD0C9F7F6CF462F4F70405D4A3318F04D
:1029D000495D31FD4052419302D0A9F7EACFB4E0FE
:1029E000A6959795879577956795BA95C9F70097B6
:1029F0006105710508959B01AC010A2E0694579557
:102A0000479537952795BA95C9F7620F731F841FAD
:102A1000951FA01D0895DC0128ED209334006C93D0
:062A20000895F894FFCFB9
:102A2600090001010F27010100007A4532322530E5
:102A36003475003C52003E003C49003C42002530C3
:102A46003375003C47003C44003C62003C56003C69
:102A560076003C65003C75003C7A003C70003C69A1
:0C2A6600003C640052656164790A0000C5
:00000001FF
